:100000000C94C3010C94E0010C94E0010C94E00109
:100010000C94E0010C94E0010C94E0010C94E001DC
:100020000C94E0010C94F5070C94E0010C94E001B1
:100030000C94E0010C94D6070C94E0010C94E001C0
:100040000C94E90A0C94E0010C94E0010C94E0019A
:100050000C94E0010C94E0010C94E0010C94E0019C
:100060000C94E0010C94E00147414D45204F56456A
:100070005200505245535320535441525421003999
:1000800000380037003600350034003300320031CC
:100090000030000180808000800003A0A0000000EC
:1000A0000005F8F8F8F8F8000578A07028F00005C9
:1000B00088102040880005609068906800028040A9
:1000C00000000000024080808040000280404040EC
:1000D00080000300A040A00000030040E0400000BA
:1000E00002000000008040030000E000000001006A
:1000F00000000080000508102040800004609090FF
:100100009060000340C04040E00004E0106080F0D8
:100110000004E0106010E000049090F01010000463
:10012000F080E010E000046080E090600004F010D7
:100130002040400004609060906000046090701067
:10014000600001008000800000020080000080400C
:10015000032040804020000300E000E00000038016
:10016000402040800004E01060004000046090B037
:10017000807000046090F090900004E090E090E0C7
:10018000000470808080700004E0909090E0000493
:10019000F080E080F00004F080E080800004708057
:1001A000B0907000049090F090900003E0404040C8
:1001B000E00004F010109060000490A0C0A0900037
:1001C0000480808080F0000588D8A888880004908A
:1001D000D0B09090000460909090600004E090E0B7
:1001E0008080000460909090601004E090E0A09007
:1001F000000470806010E00003E0404040400004D4
:1002000090909090600003A0A0A0A040000588A856
:10021000A8A850000490906090900003A0A04040D7
:10022000400004F0106080F00002C0808080C000B8
:100230000580402010080002C0404040C00005205A
:1002400050880000000400000000F0000280400020
:100250000000000300E020E0E0000380E0A0A0E058
:10026000000300E08080E0000320E0A0A0E00003A5
:1002700000E0E080E000024080C08080000300E0F9
:10028000A0E020E00380E0A0A0A00001800080802A
:1002900080000200C0404040800380A0C0A0A000B9
:1002A000018080808080000500F8A8A8A8000300D5
:1002B000E0A0A0A0000300E0A0A0E0000300E0A0F8
:1002C000A0E0800300E0A0A0E0200300E0808080A8
:1002D000000200C08040C0000340E04040400003F6
:1002E00000A0A0A0E0000300A0A0A040000500A87E
:1002F000A8A850000300A040A0A0000300A0A0E018
:1003000020E00200C04080C000036040C0406000A8
:100310000180808080800003C0406040C000036096
:10032000C000000000043040E040F0000000000881
:1003300000020100000304070000000000000000AC
:10034000010204081020408001020408102001026C
:100350000408102004040404040404040202020239
:10036000020203030303030300000000230026002E
:10037000290000000000250028002B0000000000DC
:10038000240027002A0011241FBECFEFD8E0DEBFD3
:10039000CDBF11E0A0E0B1E0E8ECF8E102C00590CB
:1003A0000D92A031B107D9F728E0A0E1B1E001C07A
:1003B0001D92AF39B207E1F70E94920A0C94620CC9
:1003C0000C94000090E0FC01F595E795F595E79514
:1003D0002EE1629FE00DF11D1124E957FE4F80953B
:1003E00090958370880F23E030E0082E01C0220F23
:1003F0000A94EAF720959081292301C0440F8A9539
:10040000EAF7422B40830895FF920F931F93CF93F7
:10041000DF931F92CDB7DEB7F82E862F042F64131B
:100420000AC0422F6F2D0F90DF91CF911F910F9136
:10043000FF900C94E201461710F4842F062F8017CA
:1004400050F411E0180F422F6F2D29830E94E20112
:10045000812F2981F4CF0F90DF91CF911F910F91C0
:10046000FF9008952F923F924F925F926F927F92EA
:100470008F929F92AF92BF92CF92DF92EF92FF92B4
:100480000F931F93CF93DF9300D000D01F92CDB76F
:10049000DEB7182F362F893708F0C1C06D3308F04A
:1004A000BEC0493708F0BBC02D3308F0B8C0841374
:1004B0002FC062131AC0402F0F900F900F900F9013
:1004C0000F90DF91CF911F910F91FF90EF90DF90F0
:1004D000CF90BF90AF909F908F907F906F905F90E4
:1004E0004F903F902F900C94E201261710F4322F7A
:1004F000262F321708F093C0FF24F394F30E402FF9
:10050000632F812F2B830E94E2013F2D2B81F1CF9E
:1005100062131CC0202F682F832F0F900F900F9015
:100520000F900F90DF91CF911F910F91FF90EF905F
:10053000DF90CF90BF90AF909F908F907F906F9003
:100540005F904F903F902F900C940402C82ED12CB6
:10055000642E712C481730F4A601461957093A0148
:100560008FEF03C06C187D0881E0E32EF12C422F41
:1005700050E0231738F49701241B350B3D832C835F
:100580003FEF06C09A012E193F093D832C8331E0CD
:100590004C815D816416750644F04C812D817D820D
:1005A0006C82642E722E10E001C011E0660C771C84
:1005B0005301EC81FD81AE1ABF0AEE0FFF1FFA83D3
:1005C000E983812C912C432E552447FC5094282EEE
:1005D000332427FC30942C813D8128153905FCF00B
:1005E000402F6E2D8C2D0E94E201B7FC0BC0113004
:1005F00019F4C20CD31C02C0E40CF51C29813A8109
:10060000A21AB30A113019F4E40CF51C02C0C20C92
:10061000D31CA60CB71C3FEF831A930ADCCF0F90B4
:100620000F900F900F900F90DF91CF911F910F912E
:10063000FF90EF90DF90CF90BF90AF909F908F9002
:100640007F906F905F904F903F902F90089581E042
:100650000E944F0985E00E94B3090E94A10A60E050
:100660008BE00E94F90960E08CE00E94F90960E0EB
:100670008DE00E94F90960E084E00E94F90960E0E1
:1006800085E00E94F90961E08AE00E94F90961E0D1
:100690008AE00C94320A10921501809119018D5F45
:1006A00080931901809118018E5F809318018091C9
:1006B0000701865080930701809106018450809342
:1006C0000601089585E00E94680A21E0892B09F45B
:1006D00020E0209384018DE00E94680A21E0892BAC
:1006E00009F420E02093830184E00E94680A21E05D
:1006F000892B09F420E0209382018CE00E94680A93
:1007000021E0892B09F420E0209381018BE00E94F5
:10071000680A8093800180918401811104C08091D6
:100720008301882321F0109282011092810180912F
:100730008201811104C080918101882321F01092EF
:1007400084011092830108950F93CF93C82F809155
:10075000190160911801685F40910701480F4150ED
:100760000C2F262F0E9432028091190160911801EE
:1007700090910601690F615040910701480F262FA3
:100780000E943202609118018091190120910601A6
:10079000260F2150685F482F0E9432026091180195
:1007A0008091190190910701890F815020910601D4
:1007B000260F2150685F482F0E943202CF910F917F
:1007C0000895CF93DF938091120190911301FC0162
:1007D000E65EFE4FDC01A45BBE4F40918601608166
:1007E0008C910E94E201809112019091130120915D
:1007F000090130E021503109DC01A45BBE4F50916A
:100800007F01FC01E65EFE4F40917E018217930757
:1008100039F480914C01850F8C9380911A010BC0A3
:100820000196EC01C45BDE4F2881250F2C93DC017F
:10083000A65EBE4F8C91840F8083DF91CF91089587
:100840006091190170E0809107019B01280F311D13
:1008500026503109442737FD4095542F6A5F7F4F5A
:10086000882777FD8095982F0E94CD0A6093170105
:100870006091180170E0809106019B01280F311DE5
:100880002E503109442737FD4095542F625F7F4F2A
:10089000882777FD8095982F0E94CD0A60931601D6
:1008A00040910B01809117010C94E2016F927F92AD
:1008B0008F92AF92CF92DF92EF92FF920F931F939E
:1008C000CF93DF93209104013091050180911001B5
:1008D000909111012817390709F4B8C0D091860109
:1008E000DF3F09F0A8C000E020E043E260E080E0E4
:1008F0000E94320226E040E060E080E00E94320286
:1009000026E043E260E083E20E94320226E043E216
:1009100066E080E00E943202C0911001D091110186
:10092000D12C19E14AE0642E712C1C161D060CF026
:1009300062C0CE01B3010E947A0B80900B01A12C02
:10094000C12E009729F431E9E32E30E0F32E43C0A5
:100950008130910529F42FE8E22E20E0F22E3BC0F1
:100960008230910529F49DE8E92E90E0F92E33C0FC
:100970008330910529F48BE8E82E80E0F82E2BC017
:100980008430910529F409E8E02E00E0F02E23C020
:100990008530910529F4B7E8EB2EB0E0FB2E1BC0A3
:1009A0008630910529F4A5E8EA2EA0E0FA2E13C0BE
:1009B0008730910529F4F3E8EF2EF0E0FF2E0BC00D
:1009C000089729F4E1E8EE2EE0E0FE2E04C07FE770
:1009D000E72E70E0F72E01E021E046E06FE583E9C5
:1009E00090E00E94C6061550CE01B3010E947A0B1A
:1009F000EB01D3949ACFC6E0CD19CC2399F0809027
:100A00000B01A12CC12E61E9E62E60E0F62E01E07B
:100A100021E046E06FE583E990E00E94C6061550AC
:100A2000C150EBCF8091100190911101909305017D
:100A3000809304010BC0C0E02D2F43E260E08C2FB7
:100A40000E940402CF5FC630B9F74DCFDF91CF913E
:100A50001F910F91FF90EF90DF90CF90AF908F900C
:100A60007F906F90089580E00E94940910927F011A
:100A700010927E0183E08093090182E080930A0155
:100A800010921101109210018FEF9FEF90930501CA
:100A90008093040110921501109214011092190113
:100AA0001092180188E7809307012CE32093060138
:100AB00082E090E0909313018093120120934C0107
:100AC0008EE180931A019DE390934D0180931B0169
:100AD0009EE390934E0180931C010895841708F4BF
:100AE000842F681708F4862F089580911201909141
:100AF0001301FC01E45BFE4F30812091170132139A
:100B000026C0FC01E65EFE4F90818091160198138D
:100B10001EC08091090141E0609108018B5F0E9435
:100B20006E058093090180911001909111010A9640
:100B30009093110180931001809115018F5F809334
:100B40001501813011F40E944B030C942004089588
:100B50008F92AF92CF92EF92FF920F93CF938091AB
:100B600014018F5F809314010E94620380918501BC
:100B7000811144C084E690E00E94A609809114018E
:100B8000C3E06C2F0E946E0B9F5F092F27E248E79E
:100B900067E280E00E943202809114016C2F0E9473
:100BA0006E0B9F5F892EBBE1AB2E00E2C02E82E769
:100BB000E82E80E0F82E01E021E046E06FE583E9D1
:100BC00090E00E94C606809114016C2F0E946E0B6B
:100BD0009F5F092F24E148E764E180E00E94320230
:100BE000C0918001C13009F0A7C00E9433050E9466
:100BF0002004C0937F01C09385019EC0813009F01D
:100C00007FC080910A01823011F08430F1F480912C
:100C10008401882359F01092820110928101109270
:100C20007F018FEF80937E0181E02EC08091830150
:100C3000882361F1109282011092810110927F014C
:100C400081E080937E0183E01FC08D7F8130F1F4CD
:100C500090918101992351F01092840110928301A7
:100C600010927E0180937F0182E00EC0809182010C
:100C7000882361F0109284011092830110927E010A
:100C80008FEF80937F0184E080930A010E945604D5
:100C900080910D010E94A4030E94E1030E9475054A
:100CA0008091120190911301FC01E65EFE4F60817C
:100CB000FC01E45BFE4F8081482F50E09EE1699F7C
:100CC000F00111249A013595279535952795E95717
:100CD000FE4FE20FF31F208130E0409550954370A6
:100CE000440F02C0359527954A95E2F723709091FD
:100CF0008601291761F190910B01291340C027C08B
:100D00008230D1F480900D015BE1A52E65E2C62E04
:100D100078E6E72E70E0F72E01E021E046E06FE58F
:100D200083E990E00E94C60680ED97E00E94A60944
:100D30000E943305109285018EE190E0CF910F91D2
:100D4000FF90EF90CF90AF908F900C94A6094091B8
:100D50000C010E94E2018091120190911301019710
:100D6000909313018093120197FFE6CF80910901C0
:100D700090E001979093130180931201DDCF80E002
:100D80000E94940982E080938501E5CF2F923F92E3
:100D90004F925F926F927F928F929F92AF92BF928B
:100DA000CF92DF92EF92FF920F931F93CF93DF9337
:100DB000CDB7DEB72D970FB6F894DEBF0FBECDBF0F
:100DC0009B838A83D42E922EB02E37010C2D862F32
:100DD00090E09C878B87442E512C9FEF491A590A2B
:100DE00093E0920F9D87B40EF3012491222309F41E
:100DF000C4C02A3019F4AB0C0C2DBBC0203219F43E
:100E00009D85090FB6C0215227FDB2C0332727FDAB
:100E10003095EB85FC852E173F070CF0A9C0249D6B
:100E2000F001259DF00D349DF00D11248A819B81E8
:100E3000E80FF91FE4901A2D9A2D9D0D9983CF018B
:100E400001961C0197E0900F9C8396E0900F9D8384
:100E500095E0900F9E8394E0900F9F8393E0900F16
:100E6000988792E0900F998791E0900F9A879981E7
:100E7000191709F47AC0F101F49008370CF070C02A
:100E800007FD07C0F7FE05C0482D612F802F0E9487
:100E9000E201EE2009F464C0073709F461C00F3F96
:100EA0003CF0F6FE05C0482D612F8A850E94E201C4
:100EB000F1E0EF1609F454C0063709F451C00E3FB3
:100EC0003CF0F5FE05C0482D612F89850E94E201A6
:100ED00082E0E81609F444C0053709F441C00D3F2B
:100EE0003CF0F4FE05C0482D612F88850E94E20188
:100EF00093E0E916A9F1043799F10C3F3CF0F3FEB9
:100F000005C0482D612F8F810E94E201E4E0EE16BA
:100F100039F1033729F10B3F3CF0F2FE05C0482DB3
:100F2000612F8E810E94E201F5E0EF16C9F00237D1
:100F3000B9F00A3F3CF0F1FE05C0482D612F8D81CC
:100F40000E94E20186E0E81659F0013749F0093FB6
:100F50003CF0F0FE05C0482D612F8C810E94E2011B
:100F60001F5F9FEF291A390A82CF0F5F0E0D01C054
:100F7000090DEFEF6E1A7E0A37CF2D960FB6F89453
:100F8000DEBF0FBECDBFDF91CF911F910F91FF90BC
:100F9000EF90DF90CF90BF90AF909F908F907F9019
:100FA0006F905F904F903F902F9008951F920F92F7
:100FB0000FB60F9211248F939F938FEF8093910818
:100FC0008AE580938F08809192089091930801960A
:100FD0009093930880939208109290089F918F911C
:100FE0000F900FBE0F901F9018951F920F920FB683
:100FF0000F9211240F931F932F934F935F938F930F
:101000009F93EF93FF9380919408E5E9F8E00081C6
:10101000803031F0003059F421E026B9808309C0D6
:1010200000000000000000000000000002C00A955F
:10103000008380918F08882321F0815080938F084E
:1010400020C1809190088C3308F01BC100914600AC
:101050000D5F07700E942C08FF91EF913596E00F0D
:1010600009940000000000000000000000000000E3
:101070009EE1899FF0011124E957FE4F44E0019160
:101080000BB9049F0BB8049E0BB8049E0BB80191DA
:101090000BB9049F0BB8049E0BB8049E0BB80191CA
:1010A0000BB9049F0BB8049E0BB8049E0BB80191BA
:1010B0000BB9049F0BB8049E0BB8049E0BB80191AA
:1010C0000BB9049F0BB8049E0BB8049E0BB801919A
:1010D0000BB9049F0BB8049E0BB8049E0BB801918A
:1010E0000BB9049F0BB8049E0BB8049E0BB801917A
:1010F0000BB9049F0BB8049E0BB8049E0BB801916A
:101100000BB9049F0BB8049E0BB8049E0BB8019159
:101110000BB9049F0BB8049E0BB8049E0BB8019149
:101120000BB9049F0BB8049E0BB8049E0BB8019139
:101130000BB9049F0BB8049E0BB8049E0BB8019129
:101140000BB9049F0BB8049E0BB8049E0BB8019119
:101150000BB9049F0BB8049E0BB8049E0BB8019109
:101160000BB9049F0BB8049E0BB8049E0BB80191F9
:101170000BB9049F0BB8049E0BB8049E0BB80191E9
:101180000BB9049F0BB8049E0BB8049E0BB80191D9
:101190000BB9049F0BB8049E0BB8049E0BB80191C9
:1011A0000BB9049F0BB8049E0BB8049E0BB80191B9
:1011B0000BB9049F0BB8049E0BB8049E0BB80191A9
:1011C0000BB9049F0BB8049E0BB8049E0BB8019199
:1011D0000BB9049F0BB8049E0BB8049E0BB8019189
:1011E0000BB9049F0BB8049E0BB8049E0BB8019179
:1011F0000BB9049F0BB8049E0BB8049E0BB8019169
:101200000BB9049F0BB8049E0BB8049E0BB8019158
:101210000BB9049F0BB8049E0BB8049E0BB8019148
:101220000BB9049F0BB8049E0BB8049E0BB8019138
:101230000BB9049F0BB8049E0BB8049E0BB8019128
:101240000BB9049F0BB8049E0BB8049E0BB8019118
:101250000BB9049F0BB8049E0BB8049E0BB800009A
:1012600000E00BB9809191088F5F809391088530E1
:1012700041F48FEF80939108809190088F5F809365
:101280009008FF91EF919F918F915F914F912F91D6
:101290001F910F910F900FBE0F901F901895CF9335
:1012A000F894882321F061E08EE00E94F909109201
:1012B0006E0014BCC1E0C5BD17BC18BC16BC61E013
:1012C00089E00E94F90982E8809380008DE1809393
:1012D000810083E091E090938700809386001092D4
:1012E000890010928800C6BBC0936F0061E083E064
:1012F0000E94F90983E28093B0008AE08093B100F4
:101300008FE38093B30087E08093B400C7BBC093A2
:10131000700061E086E00E94F90961E087E00E94C8
:10132000F9097894CF9108958370982F990F990FA8
:10133000982B892F8295807F892BE7E8F1E098E050
:10134000EF38F90711F08193FACF0895019750F023
:1013500025EF31E021503109C9F300000000000001
:101360000000F8CF08958E3008F08E5087702091DD
:101370000E0190E4299F90011124822B80937C0020
:1013800080917A00806480937A0080917A0086FD53
:10139000FCCF809178002091790090E0922B089505
:1013A000833081F028F4813099F08230A1F00895E3
:1013B0008730A9F08830B9F08430D1F48091800072
:1013C0008F7D03C0809180008F7780938000089587
:1013D00084B58F7702C084B58F7D84BD08958091D8
:1013E000B0008F7703C08091B0008F7D8093B000F4
:1013F0000895CF93DF9390E0FC01E05CFC4F2491D3
:10140000FC01EC5AFC4F8491882349F190E0880F4D
:10141000991FFC01E458FC4FA591B4918E589C4F44
:10142000FC01C591D4919FB7611108C0F8948C91CB
:10143000209582238C93888182230AC0623051F4E4
:10144000F8948C91322F309583238C938881822B52
:10145000888304C0F8948C91822B8C939FBFDF917A
:10146000CF9108950F931F93CF93DF931F92CDB722
:10147000DEB7282F30E0F901E45DFC4F8491F901DB
:10148000E05CFC4F1491F901EC5AFC4F04910023ED
:10149000C9F0882321F069830E94D0096981E02F77
:1014A000F0E0EE0FFF1FEE58FC4FA591B4919FB7EF
:1014B000F8948C91611103C01095812301C0812B98
:1014C0008C939FBF0F90DF91CF911F910F91089543
:1014D000CF93DF93282F30E0F901E45DFC4F849136
:1014E000F901E05CFC4FD491F901EC5AFC4FC49136
:1014F000CC2391F081110E94D009EC2FF0E0EE0F87
:10150000FF1FE859FC4FA591B4912C912D2381E048
:1015100090E021F480E002C080E090E0DF91CF9184
:10152000089508950E94330B0E94910A0E94270398
:10153000C0E0D0E00E94A8052097E1F30E940000DF
:10154000F9CF009729F0BC0180E090E00C94510C99
:101550000895CF93DF9300D000D0CDB7DEB79B01C5
:10156000AC01611571058105910569F069833A83C4
:101570004B835C830E944C0C29813A814B815C81B6
:101580000E948E0B03C060E070E0CB010F900F90C3
:101590000F900F90DF91CF910895CF92DF92EF924D
:1015A000FF926B017C01621773078407950764F44F
:1015B000CA01B9016C197D098E099F090E94A90A07
:1015C0006C0D7D1D8E1D9F1DFF90EF90DF90CF90C5
:1015D00008951F920F920FB60F9211242F933F93ED
:1015E0008F939F93AF93BF938091970890919808A2
:1015F000A0919908B0919A083091960823E0230FA2
:101600002D3720F40196A11DB11D05C026E8230F3A
:101610000296A11DB11D2093960880939708909380
:101620009808A0939908B0939A0880919B0890918C
:101630009C08A0919D08B0919E080196A11DB11D26
:1016400080939B0890939C08A0939D08B0939E085C
:10165000BF91AF919F918F913F912F910F900FBEAE
:101660000F901F901895789484B5826084BD84B5DE
:10167000816084BD85B5826085BD85B5816085BD8D
:10168000EEE6F0E0808181608083E1E8F0E01082A6
:10169000808182608083808181608083E0E8F0E0E7
:1016A000808181608083E1EBF0E0808184608083D1
:1016B000E0EBF0E0808181608083EAE7F0E0808108
:1016C0008460808380818260808380818160808368
:1016D0008081806880831092C1000895991B79E011
:1016E00004C0991F961708F0961B881F7A95C9F7B2
:1016F0008095089597FB072E16F4009407D077FD88
:1017000009D00E94B80B07FC05D03EF49095819556
:101710009F4F0895709561957F4F0895052E97FB13
:101720001EF400940E94A50B57FD07D00E94CC0B1D
:1017300007FC03D04EF40C94A50B509540953095C2
:1017400021953F4F4F4F5F4F08959095809570952D
:1017500061957F4F8F4F9F4F08950E94EE0BA59F7D
:10176000900DB49F900DA49F800D911D112408959C
:10177000AA1BBB1B51E107C0AA1FBB1FA617B707B7
:1017800010F0A61BB70B881F991F5A95A9F78095D3
:101790009095BC01CD010895A1E21A2EAA1BBB1B96
:1017A000FD010DC0AA1FBB1FEE1FFF1FA217B3072D
:1017B000E407F50720F0A21BB30BE40BF50B661F43
:1017C000771F881F991F1A9469F760957095809507
:1017D00090959B01AC01BD01CF010895A29FB0017E
:1017E000B39FC001A39F700D811D1124911DB29F55
:1017F000700D811D1124911D08958F929F92AF92BB
:10180000BF92CF92DF92EF92FF92CF93DF93EC01E2
:10181000688179818A819B816115710581059105B6
:1018200021F464E279ED8BE597E02DE133EF41E0BF
:1018300050E00E948E0B49015A019B01AC01A7EABE
:10184000B1E40E94AD0B6B017C01ACEEB4EFA501DD
:1018500094010E945D0CC60ED71EE81EF91EF7FE0D
:1018600006C081E0C81AD108E10880E8F80AC882F9
:10187000D982EA82FB82C701B6019F77DF91CF91BF
:10188000FF90EF90DF90CF90BF90AF909F908F90A0
:1018900008950E94FD0B089580E091E00E94FD0BE9
:1018A0000895609300017093010180930201909369
:1018B00003010895B7FF0C94AD0B0E94AD0B821B82
:0818C000930B0895F894FFCF8B
:1018C80001000000FFFF3C7832030203020101001F
:00000001FF
