:100000000C9476050C9493050C9493050C9493052D
:100010000C9493050C9493050C9493050C94930500
:100020000C9493050C9458120C9493050C9493051E
:100030000C9493050C9439120C9493050C9493052D
:100040000C9469150C9493050C9493050C949305EA
:100050000C9493050C9493050C9493050C949305C0
:100060000C9493050C949305594F5520434F4D50D4
:100070004C4554454420414C4C2053544147455332
:1000800021004C4556454C203130004C4556454CDE
:100090002039004C4556454C2038004C4556454CBF
:1000A0002037004C4556454C2036004C4556454CB3
:1000B0002035004C4556454C2034004C4556454CA7
:1000C0002033004C4556454C2032004C4556454C9B
:1000D00020310047414D45204F56455200390038E8
:1000E0000037003600350034003300320031003074
:1000F0000000000000000000000000000000000000
:1001000000000000000000000000000000000000EF
:1001100000000000000000000000000000000000DF
:1001200000000000000000000000000000000000CF
:1001300000000000000000000000000000000000BF
:1001400000000000000000000000000000000000AF
:10015000000000000000000000000000000000009F
:10016000000000000000000000000000000000008F
:10017000000000000000000000000000000000007F
:10018000000000000000000000000000000000006F
:10019000000000000000000000000000000000005F
:1001A000000000000000000000000000000000004F
:1001B000000000000000000000000000000000003F
:1001C000000000000000000000FC7F1400000000A0
:1001D000000000000000000000000000000000001F
:1001E00000000000000000FC7F1400000000000080
:1001F00000000000000000000000000000000000FF
:100200000000000000F17FC40000000000000000BA
:1002100000000000000000000000000000000000DE
:100220000000030103C50000000000000000000002
:1002300000000000000000000000000000000000BE
:10024000030103C5000000000000000000000000E2
:100250000000000000000000000000000000030596
:1002600003C50000000000000000000000000000C6
:1002700000000000000000000000000003C53F1562
:1002800000000FFFF03F00FC0FFFF0FC03F03FFF0A
:10029000F000000000000000000000153C550000C8
:1002A0003FFFFC3FC0FC3FFFFCFC03F0FFFFF00002
:1002B00000000000000000000055551400003FFF42
:1002C000FC3FC0FC3FFFFCFC03F0FFFFF000000020
:1002D0000000000000000000005400003F00FC3F50
:1002E000F0FC3F00FCFC03F0FC00000000000000FC
:1002F0000000000000A8555000003F00003FF0FC47
:100300003F00FCFC03F0FC000000000000000000C7
:1003100000000A80D54000003FFFF03FF0FC3FFFA7
:10032000FCFFFFF0FFFC00000000000000000002E6
:10033000AA01550500003FFFFC3F3CFC3FFFFCFFCE
:10034000FFC0FFFC0000000000000000000AA8033E
:10035000FD1540000FFFFC3F0FFC3FFFFCFFFFF0CF
:10036000FFFC000000000000000000002001551507
:1003700050000000FC3F0FFC3F00FCFC03F0FC00C1
:1003800000000000000000000002A003D555554009
:100390003F00FC3F0FFC3F00FCFC03F0FC000000B2
:1003A00000000000000000000003D55155403FFF51
:1003B000FC3F03FC3F00FCFC03F0FFFFF0000000EB
:1003C0000000000000000001554054003FFFFC3FCA
:1003D00003FC3F00FCFC03F0FFFFF0000000000006
:1003E000000000000001554054000FFFF03F00FCEA
:1003F0003F00FCFC03F03FFFF000000000000000A5
:1004000000000000000000000000000000000000EC
:1004100000000000000000000000000000000000DC
:1004200000000000000000000000000000000000CC
:1004300000000000000000000000000000000000BC
:1004400000000000000000000000000000000000AC
:10045000000000000000000000000000000000009C
:10046000000000000000000000000000000000008C
:10047000000000000000000000000000000000007C
:10048000000000000000000000000000000000006C
:10049000000000000000000000000000000000005C
:1004A000000000000000000000000000000000004C
:1004B00000000000000FFFFFFFFFFFFFFFFFFFFF37
:1004C000FFFFFFFFFFFFFFFFFFFFF0000000000046
:1004D000000000000000000000000000000000001C
:1004E000000000000000000000000000000000000C
:1004F00000000000000000000000000000000000FC
:1005000000000000000000000000000000000000EB
:1005100000000000000000000000000000000000DB
:1005200000000000000000000000000000000000CB
:1005300000000000000000000000000000000000BB
:1005400000000000000000000000000000000000AB
:10055000000000000000000000000000000000009B
:10056000000000000000000000000000000000008B
:10057000000000000000000000000000000000007B
:10058000000000000000000000000000000000006B
:10059000000000000000000000000000000000005B
:1005A000000000000000002AA0AA80AA80AA02A8D9
:1005B000002A82AA8A82AA02AA8000000000000003
:1005C00000000000002828A0A0A002828A0A00A043
:1005D000A0280A828280280000000000000000009D
:1005E0000000002828A0A0A002800A0000A0002887
:1005F00028A2828028000000000000000000000007
:10060000002828A0A0AA82A80AA000AA002828A240
:100610008280280000000000000000000000002A86
:10062000A0AA80A0002A80AA000AA02828A2AA00C6
:10063000280000000000000000000000002800A2C8
:1006400080A00002800A0000A028AAAA8A00280030
:1006500000000000000000000000002800A0A0A092
:1006600002828A0A00A0A028A02A82802800000016
:100670000000000000000000002800A028AA80AAB6
:1006800002A8002A8028A02A80A0280000000000DC
:10069000000000000000000000000000000000005A
:1006A000000000000000000000000000000000004A
:1006B000000000000000000000000000000000003A
:1006C000000000000000000000000000000000002A
:1006D000000000000000000000000000000000001A
:1006E000000000000000000000000000000000000A
:1006F00000000000000000000000000000000000FA
:1007000000000000000000000000000000000000E9
:1007100000000000000000000000000000000000D9
:1007200000000000000000000000000000000000C9
:1007300000000000000000000000000000000000B9
:1007400000000000000000000000000000000000A9
:100750000000000000000000000000000000000099
:100760000000000000000000000000000000000089
:100770000000000000000000000000000000000079
:100780000000000000000000000000000000000069
:100790000000000000000000000000000000000059
:1007A0000000000000000000000000000000000049
:1007B0000000000000000000000000000000000039
:1007C0000000000000000000000000000000000029
:1007D0000000000000000000000000000000000019
:1007E0000000000000000000000000000000000009
:1007F00000000000000000000001808080008000F8
:1008000003A0A00000000005F8F8F8F8F80005784B
:10081000A07028F0000588102040880005609068CE
:10082000906800028040000000000240808080400C
:1008300000028040404080000300A040A000000370
:100840000040E04000000200000000804003000083
:10085000E0000000010000000080000508102040BA
:100860008000046090909060000340C04040E00031
:1008700004E0106080F00004E0106010E0000490DC
:1008800090F010100004F080E010E000046080E0C0
:1008900090600004F0102040400004609060906080
:1008A0000004609070106000010080008000000271
:1008B000008000008040032040804020000300E0D2
:1008C00000E000000380402040800004E010600051
:1008D0004000046090B0807000046090F090900040
:1008E00004E090E090E0000470808080700004E0FC
:1008F000909090E00004F080E080F00004F080E050
:10090000808000047080B0907000049090F090900F
:100910000003E0404040E00004F01010906000044C
:1009200090A0C0A090000480808080F0000588D84E
:10093000A88888000490D0B09090000460909090B7
:10094000600004E090E0808000046090909060106F
:1009500004E090E0A090000470806010E00003E0EC
:1009600040404040000490909090600003A0A0A000
:10097000A040000588A8A8A850000490906090901E
:100980000003A0A04040400004F0106080F000028E
:10099000C0808080C0000580402010080002C04058
:1009A0004040C00005205088000000040000000006
:1009B000F000028040000000000300E020E0E000C2
:1009C0000380E0A0A0E0000300E08080E0000320BE
:1009D000E0A0A0E0000300E0E080E000024080C072
:1009E0008080000300E0A0E020E00380E0A0A0A061
:1009F00000018000808080000200C04040408003F1
:100A000080A0C0A0A000018080808080000500F848
:100A1000A8A8A8000300E0A0A0A0000300E0A0A0F8
:100A2000E0000300E0A0A0E0800300E0A0A0E02040
:100A30000300E0808080000200C08040C0000340CE
:100A4000E0404040000300A0A0A0E0000300A0A000
:100A5000A040000500A8A8A850000300A040A0A046
:100A6000000300A0A0E020E00200C04080C000031E
:100A70006040C04060000180808080800003C040F2
:100A80006040C0000360C000000000043040E0404F
:100A9000F00000000008000201000003040700004D
:100AA0000000000000000102040810204080010244
:100AB00004081020010204081020040404040404A3
:100AC0000404020202020202030303030303000000
:100AD0000000230026002900000000002500280057
:100AE0002B0000000000240027002A0011241FBE54
:100AF000CFEFD8E0DEBFCDBF11E0A0E0B1E0E8EC81
:100B0000FDE202C005900D92A431B107D9F728E0AB
:100B1000A4E1B1E001C01D92A53AB207E1F70E943D
:100B200012150C94E2160C94000090E0FC01F5956F
:100B3000E795F595E7952EE1629FE00DF11D1124F3
:100B4000E357FE4F809590958370880F23E030E047
:100B5000082E01C0220F0A94EAF7209590812923DC
:100B600001C0440F8A95EAF7422B40830895282F4D
:100B700030E08EE1689FF0011124C90195958795B9
:100B800095958795E357FE4FE80FF91F808190E018
:100B9000209530952370220F02C0959587952A9550
:100BA000E2F783700895FF920F931F93CF93DF9323
:100BB0001F92CDB7DEB7F82E862F042F64130AC01C
:100BC000422F6F2D0F90DF91CF911F910F91FF90CA
:100BD0000C949505461710F4842F062F801750F4B7
:100BE00011E0180F422F6F2D29830E949505812F48
:100BF0002981F4CF0F90DF91CF911F910F91FF903A
:100C000008952F923F924F925F926F927F928F92B0
:100C10009F92AF92BF92CF92DF92EF92FF920F938B
:100C20001F93CF93DF9300D000D01F92CDB7DEB7D4
:100C3000182F362F893708F0C1C06D3308F0BEC0B9
:100C4000493708F0BBC02D3308F0B8C084132FC05B
:100C500062131AC0402F0F900F900F900F900F90BB
:100C6000DF91CF911F910F91FF90EF90DF90CF9088
:100C7000BF90AF909F908F907F906F905F904F90BC
:100C80003F902F900C949505261710F4322F262FA5
:100C9000321708F093C0FF24F394F30E402F632F14
:100CA000812F2B830E9495053F2D2B81F1CF62135D
:100CB0001CC0202F682F832F0F900F900F900F9044
:100CC0000F90DF91CF911F910F91FF90EF90DF90E8
:100CD000CF90BF90AF909F908F907F906F905F90DC
:100CE0004F903F902F900C94D305C82ED12C642E9A
:100CF000712C481730F4A601461957093A018FEFB5
:100D000003C06C187D0881E0E32EF12C422F50E0E7
:100D1000231738F49701241B350B3D832C833FEFB9
:100D200006C09A012E193F093D832C8331E04C8186
:100D30005D816416750644F04C812D817D826C8244
:100D4000642E722E10E001C011E0660C771C530176
:100D5000EC81FD81AE1ABF0AEE0FFF1FFA83E98313
:100D6000812C912C432E552447FC5094282E33245B
:100D700027FC30942C813D8128153905FCF0402F4B
:100D80006E2D8C2D0E949505B7FC0BC0113019F407
:100D9000C20CD31C02C0E40CF51C29813A81A21AB2
:100DA000B30A113019F4E40CF51C02C0C20CD31CB8
:100DB000A60CB71C3FEF831A930ADCCF0F900F905D
:100DC0000F900F900F90DF91CF911F910F91FF9097
:100DD000EF90DF90CF90BF90AF909F908F907F90DB
:100DE0006F905F904F903F902F900895883720F438
:100DF0006C3310F40C94950508952F923F924F9206
:100E00005F926F927F928F929F92AF92BF92CF929A
:100E1000DF92EF92FF920F931F93CF93DF9300D057
:100E200000D0CDB7DEB7F82E162FE42E38E73817EE
:100E300008F4AFC06D3308F0ACC0341708F4A9C093
:100E40002D3308F0A6C084132BC0621319C0402FA5
:100E50000F900F900F900F90DF91CF911F910F91F6
:100E6000FF90EF90DF90CF90BF90AF909F908F90CA
:100E70007F906F905F904F903F902F900C94F6066C
:100E8000261710F4122F262F121708F082C0402FB9
:100E9000612F8F2D2A830E94F6061F5F2A81F4CFCF
:100EA00062130EC0481710F4F42EE82EFE1408F05A
:100EB00070C0402F612F8F2D0E94F606F394F6CF5D
:100EC000C82ED12C642E712C481730F4C601861917
:100ED00097093C018FEF03C06C187D0881E0E12E7B
:100EE000F12C422F50E0211738F49701241B350BC9
:100EF0003C832B839FEF06C09A012E193F093C8348
:100F00002B8391E02B813C816216730644F03B8178
:100F10002C817C826B82632E722E10E001C011E066
:100F2000660C771C53012B813C81A21AB30A220F55
:100F3000331F812C912C492E552447FC5094282E88
:100F4000332427FC3094EB81FC81E815F9050CF182
:100F5000402F6E2D8C2D2A8339830E94F6062A811C
:100F60003981B7FC09C0113019F4C20CD31C02C07E
:100F7000E40CF51CA21AB30A113019F4E40CF51CA8
:100F800002C0C20CD31CA60CB71C8FEF881A980A9B
:100F9000DACF0F900F900F900F90DF91CF911F91AC
:100FA0000F91FF90EF90DF90CF90BF90AF909F9008
:100FB0008F907F906F905F904F903F902F9008950B
:100FC00081E00E94B21385E00E9433140E94211533
:100FD00060E08BE00E94791460E08CE00E9479145C
:100FE00060E08DE00E94791460E084E00E94791452
:100FF00060E085E00E94791461E08AE00E94791443
:1010000061E08AE00C94B21424E030E040E050E06B
:1010100061E070E080E090E00E944D1560930E0169
:10102000613021F4109285018FEF09C0623011F414
:1010300081E00BC0633031F41092850181E0809330
:10104000840107C0643029F48FEF809385011092EA
:101050008401109219011092180110921B0183E073
:1010600080930D0182E090E0909317018093160128
:1010700020910C0182E591E0A0E2B1E0FC013E2F5D
:10108000381B321718F411921D92F9CF8CE380931C
:1010900052018EE1809320019DE390935301809350
:1010A00021019EE39093540180932201089585E0ED
:1010B0000E94E81421E0892B09F420E020938A01A2
:1010C0008DE00E94E81421E0892B09F420E02093B0
:1010D000890184E00E94E81421E0892B09F420E0D2
:1010E000209388018CE00E94E81421E0892B09F408
:1010F00020E0209387018BE00E94E8148093860112
:1011000080918A01811104C080918901882321F096
:10111000109288011092870180918801811104C08A
:1011200080918701882321F010928A011092890111
:1011300008950F93CF93C82F80911F0160911E01D6
:10114000685F40910A01480F41500C2F262F0E94E2
:10115000FD0680911F0160911E0190910901690FA8
:10116000615040910A01480F262F0E94FD066091B0
:101170001E0180911F0120910901260F2150685FF7
:10118000482F0E94FD0660911E0180911F019091E1
:101190000A01890F815020910901260F2150685FB3
:1011A000482F0E94FD06CF910F9108958F92AF9224
:1011B000CF92EF92FF920F93CF93C62F813091F48D
:1011C00080901001A12C99E5C92E2BECE22E20E095
:1011D000F22E01E021E046E06FE589EF97E00E9402
:1011E0002911A1C3823041F580901001A12C08E59E
:1011F000C02E83ECE82E80E0F82E01E021E046E0EE
:101200006FE589EF97E00E94291160911E0180919E
:101210001F018C5E20910901260F2C506C5E0C2F53
:10122000482F0E94FD0660911E0180911F01909140
:101230000A01890F845177C0833071F580901001C5
:10124000A12CA8E5CA2EBBEBEB2EB0E0FB2E01E0F3
:1012500021E046E06FE589EF97E00E942911809137
:101260001F0160911E016F5E40910A01480F4E51AF
:101270000C2F262F825E0E94FD0680911F01609137
:101280001E0190910901690F6A5040910A01480FAF
:101290004E51262F825E45C3843009F049C08090AC
:1012A0001001A12CE8E5CE2EF3EBEF2EF0E0FF2E9F
:1012B00001E021E046E06FE589EF97E00E94291107
:1012C00080911F0160911E016F5E40910A01480FDD
:1012D0004E510C2F262F825E0E94FD0680911F0129
:1012E00060911E0190910901690F6A5040910A01B5
:1012F000480F4E51262F825E0E94FD0660911E010E
:1013000080911F01815F20910901260F2C506C5E96
:10131000482F0E94FD0660911E0180911F0190914F
:101320000A01890F8F5020910901260F2C504BC0C4
:10133000853009F04AC080900F01A12C68E5C62EC7
:101340007BEAE72E70E0F72E01E021E046E06FE552
:1013500089EF97E00E94291180911F0160911E0181
:101360006F5E40910A01480F4E510C2F262F815F6E
:101370000E94FD0680911F0160911E01909109015C
:10138000690F6A5040910A01480F4E50262F825E25
:101390000E94FD0660911E0180911F01815F2091D6
:1013A0000901260F2C506F5E482F0E94FD066091A8
:1013B0001E0180911F0190910A01890F8F50209189
:1013C0000901260F2A506C5EABC2863009F0B9C005
:1013D00080900F01A12C48E5C42E53EAE52E50E081
:1013E000F52E01E021E046E06FE589EF97E00E94ED
:1013F000291180911F0160911E01615F44E1480F36
:101400000C2F262F865F0E94FD0660911E018091A1
:101410001F018C5E29E1260F615F482F0E94FD06A7
:1014200080911F0160911E01675E48E2480F262FE0
:101430008C5E0E94FD0680911F0160911E019091BB
:101440000901690F695044E1480F262F865F0E9409
:10145000FD066091090180911E01680F80911F01B6
:101460008C5E2DEE260F6850482F0E94FD0680915D
:101470001F0160911E0190910901690F635148E2BB
:10148000480F262F8C5E0E94FD0680910A019091E4
:101490001F01890F60911E01615F4CEE480F262FDE
:1014A0008A500E94FD0660911E0180911F0190915B
:1014B0000A01890F845129E1260F615F482F0E949C
:1014C000FD0680910A0190911F01890F60911E0114
:1014D000675E48ED480F262F83510E94FD068091DC
:1014E0000A0190911F01890F60911E0190910901DD
:1014F000690F69504CEE480F262F8A500E94FD0656
:101500006091090180911E01680F80911F019091E7
:101510000A01890F84512DEE260F6850482F0E9432
:10152000FD0680910A0190911F01890F60911E01B3
:1015300090910901690F635148ED480F262F84519E
:10154000F0C1873009F062C080900F01A12C28E51E
:10155000C22E3BE9E32E30E0F32E01E021E046E02D
:101560006FE589EF97E00E94291160911E0180913B
:101570001F01865F20910901260F2650625F0C2F04
:10158000482F0E94FD0660911E0180911F018C5E14
:1015900020910901260F2650625F482F0E94FD0608
:1015A00060911E0180911F01825E20910901260F2A
:1015B0002650625F482F0E94FD0660911E018091B7
:1015C0001F0190910A01890F8A5020910901260F6D
:1015D0002650625F482F0E94FD0660911E01809197
:1015E0001F0190910A01890F845120910901260F52
:1015F0002650625F482F0E94FD0660911E01809177
:101600001F0190910A01890F8E51E5C0883009F0C1
:1016100044C080901101A12C88E5C82E93E9E92EE1
:1016200090E0F92E01E021E046E06FE589EF97E0D8
:101630000E94291180911F0160911E01605E4EE1A0
:10164000480F0C2F262F865F0E94FD0680910A010D
:1016500090911F01890F60911E01605E42EE480F5C
:10166000262F8A500E94FD0680911F0160911E0165
:101670006E5E40910A01480F4852262F885D0E94F5
:10168000FD0680911F0160911E01605D40910A017D
:10169000480F4852262F885D44C1893009F0A1C007
:1016A00080901101A12CB8E5CB2E0BE8E02E00E0D4
:1016B000F02E01E021E046E06FE589EF97E00E941F
:1016C000291160911E0180911F0190910A01890FDB
:1016D0008A5020910901260F2650625F0C2F482F57
:1016E0000E94FD0660911E0180911F0190910A01E8
:1016F000890F845120910901260F2E506A5E482FD0
:101700000E94FD0660911E0180911F0190910A01C7
:10171000890F8E5120910901260F2650625F482FB4
:101720000E94FD0660911E0180911F0190910A01A7
:10173000890F885220910901260F2E506A5E482F8A
:101740000E94FD0660911E0180911F0190910A0187
:10175000890F825320910901260F2650625F482F7E
:101760000E94FD0660911E0180911F01865F2091FD
:101770000901260F2650625F482F0E94FD066091E6
:101780001E0180911F018C5E20910901260F2E50B1
:101790006A5E482F0E94FD0660911E0180911F0124
:1017A000825E20910901260F2650625F482F0E9419
:1017B000FD0660911E0180911F01885D2091090145
:1017C000260F2E506A5E482F0E94FD0660911E0172
:1017D00080911F018E5C20910901260F2650625FC7
:1017E0009FC08A3009F09FC080901101A12CF4E5C0
:1017F000CF2EA2E8EA2EA0E0FA2E01E021E046E09A
:101800006FE589EF97E00E94291160911E01809198
:101810001F0190910A01890F8A5020910901260F1A
:101820002750625F0C2F482F0E94FD0680911F01F8
:1018300060911E01625F40910A01480F4A50262FB5
:10184000865F0E94FD0680911F0160911E019091AC
:101850000901690F675040910A01480F4950262F2E
:10186000865F0E94FD0660911E0180911F01865FC8
:101870002CE1260F625F482F0E94FD0660911E0139
:1018800080911F01865F20910901260F27506F5D0F
:10189000482F0E94FD0660911E0180911F019091CA
:1018A0000A01890F845126E2260F6B5E482F0E94A1
:1018B000FD0660911E0180911F0190910A01890F20
:1018C000845120910901260F2E50655D482F0E94FA
:1018D000FD0680911F0160911E016B5E40910A011F
:1018E000480F4451262F8C5E0E94FD0680911F01F7
:1018F00060911E0190910901690F6E5040910A019B
:10190000480F4351262F8C5E0E94FD0660911E01F8
:1019100080911F018C5E20910901260F2E506B5E75
:10192000482F0E94FD06CF910F91FF90EF90CF902E
:10193000AF908F900895CF93DF938091160190918F
:101940001701FC01E05EFE4FDC01AE5ABE4F409134
:101950008C0160818C910E94950580911601909177
:10196000170120910D0130E021503109DC01AE5A00
:10197000BE4F50918501FC01E05EFE4F4091840115
:101980008217930739F480915201850F8C938091CF
:1019900020010BC00196EC01CE5ADE4F2881250FA5
:1019A0002C93DC01A05EBE4F8C91840F8083DF916D
:1019B000CF9108956F927F928F92AF92CF92DF92E4
:1019C000EF92FF920F931F93CF93DF932091050126
:1019D0003091060180911401909115012817390763
:1019E00009F4B8C0D0918C01DF3F09F0A8C000E035
:1019F00020E043E260E080E00E94010626E040E053
:101A000060E080E00E94010626E043E260E083E2BD
:101A10000E94010626E043E266E080E00E940106A3
:101A2000C0911401D0911501D12C19E19AE0692ED1
:101A3000712C1C161D060CF062C0CE01B3010E9471
:101A4000FA1580900F01A12CC12E009729F48FEE7A
:101A5000E82E80E0F82E43C08130910529F40DEE88
:101A6000E02E00E0F02E3BC08230910529F4BBEE61
:101A7000EB2EB0E0FB2E33C08330910529F4A9EEA4
:101A8000EA2EA0E0FA2E2BC08430910529F4F7EE5F
:101A9000EF2EF0E0FF2E23C08530910529F4E5EE0E
:101AA000EE2EE0E0FE2E1BC08630910529F473EE89
:101AB000E72E70E0F72E13C08730910529F461EE10
:101AC000E62E60E0F62E0BC0089729F45FEDE52EB8
:101AD00050E0F52E04C04DEDE42E40E0F42E01E080
:101AE00021E046E06FE589EF97E00E94291115504B
:101AF000CE01B3010E94FA15EB01D3949ACFC6E050
:101B0000CD19CC2399F080900F01A12CC12E3FEE6E
:101B1000E32E30E0F32E01E021E046E06FE589EFAF
:101B200097E00E9429111550C150EBCF809114010C
:101B30009091150190930601809305010BC0C0E0C0
:101B40002D2F43E260E08C2F0E94D305CF5FC6307B
:101B5000B9F74DCFDF91CF911F910F91FF90EF908B
:101B6000DF90CF90AF908F907F906F90089580E03E
:101B70000E94F71310921501109214018FEF9FEF3E
:101B8000909306018093050110921A0110921F0193
:101B900010921E0188E780930A019CE3909309014B
:101BA00081E08093080190930B01809304010C94D1
:101BB0000408CF93DF93EB010E941514CE010E941D
:101BC0002614DF91CF910C9423148F92AF92CF9271
:101BD000EF92FF920F93809108018F5F809308012D
:101BE00080910B01855080930B018091140190919D
:101BF000150188519C4F909315018093140180E04A
:101C00000E94F71380910801823059F480901001EE
:101C10008BE1A82E9BE2C92E23ECE22E20E0F22ECF
:101C200067C0833059F480901001ABE1AA2EBBE26B
:101C3000CB2E0BEBE02E00E0F02E5AC0843059F48E
:101C4000809010017BE1A72EEBE2CE2EF3EBEF2E7E
:101C5000F0E0FF2E4DC0853059F480900F014BE12C
:101C6000A42E5BE2C52E6BEAE62E60E0F62E40C0A5
:101C7000863059F480900F019BE1A92E2BE2C22EF1
:101C800033EAE32E30E0F32E33C0873059F48090EE
:101C90000F01BBE1AB2E0BE2C02E8BE9E82E80E0FA
:101CA000F82E26C0883059F480901101EBE1AE2E59
:101CB000FBE2CF2EA3E9EA2EA0E0FA2E19C089306C
:101CC00059F4809011015BE1A52E6BE2C62E7BE8F2
:101CD000E72E70E0F72E0CC08A30D1F5809011010C
:101CE0002BE1A22E38E2C32E42E8E42E40E0F42E8F
:101CF00001E021E046E06FE589EF97E00E942911BD
:101D000084EF91E00E94261466E970E086E091E09D
:101D10000E94D90D66E970E086E091E00E94D90D3D
:101D200066E970E086E091E00E94D90D6CE271E016
:101D30008DE591E00E94D90D80ED97E00E94261478
:101D400080E00E94F7130E94040810921B0103C058
:101D500083E080938B010F91FF90EF90CF90AF9035
:101D60008F900895CF93DF9380918B01813009F09C
:101D700062C0D0911C01C0911D016D2F8C2F0E945B
:101D8000B70590910F01891306C040918C016D2F0A
:101D90008C2F0E94950560911F0170E080910A01CF
:101DA0009B01280F311D24503109442737FD4095F0
:101DB000542F6C5F7F4F882777FD8095982F0E9466
:101DC0004D1560931D0160911E0170E08091090125
:101DD0009B01280F311D2C503109442737FD4095B8
:101DE000542F645F7F4F882777FD8095982F0E943E
:101DF0004D1560931C0180911D010E94B7059091C3
:101E00001101891709F4B0CF90911001891709F4D5
:101E1000ABCF62E370E085E795E00E94D90D409179
:101E20000F0160911C0180911D010E949505109287
:101E3000190110921801DF91CF910895809104014A
:101E4000882309F456C084EF91E00E94261463E5CC
:101E500070E088EB91E00E94D90D8CE690E00E9442
:101E6000261463E570E08BE092E00E94D90D8CE6C9
:101E700090E00E94261463E570E08EEE91E00E94EF
:101E8000D90D8CE690E00E94261463E570E088EBA3
:101E900091E00E94D90D8CE690E00E94261463E543
:101EA00070E088EB91E00E94D90D8CE690E00E94F2
:101EB000261463E570E08BE492E00E94D90D8CE675
:101EC00090E00E94261463E570E08BE092E00E94AF
:101ED000D90D8CE690E00E94261463E570E08EEE4A
:101EE00091E00E94D90D8CE690E00E942614109299
:101EF00004010895841708F4842F681708F4862FC6
:101F000008958091160190911701FC01EE5AFE4F41
:101F1000308120911D0132132EC0FC01E05EFE4F86
:101F2000908180911C01981326C080910D0141E0A1
:101F300060910C018B5F0E947A0F80930D0180915C
:101F40001401909115010A96909315018093140144
:101F500080911B018F5F80931B0164E670E087E135
:101F600094E00E94D90D80911B018A3011F40E94E7
:101F7000E50D0C94B20E8091070190E020911801BC
:101F8000309119012817390784F08091140190913C
:101F900015010597909315018093140197FFE9CFE0
:101FA0001092150110921401E4CF08958F92AF9210
:101FB000CF92EF92FF920F931F93CF93DF93809175
:101FC0001A018F5F80931A010E94570880918B013C
:101FD000811116C084E690E00E94261481EF90E003
:101FE0000E9409140E941E0FC0918601C13009F0A1
:101FF000F7C00E94B70DC0938B010E94B20EF0C0D3
:10200000813009F076C080911801909119010196F4
:10201000909319018093180180910E01823011F084
:102020008430F1F480918A01882359F0109288015C
:1020300010928701109285018FEF8093840181E0D7
:102040002EC080918901882361F11092880110923D
:1020500087011092850181E08093840183E01FC095
:102060008D7F8130F1F490918701992351F0109286
:102070008A0110928901109284018093850182E087
:102080000EC080918801882361F010928A0110921D
:102090008901109284018FEF8093850184E0809301
:1020A0000E010E94DA0C60911101809108010E94DA
:1020B000D608809111010E9499080E949B0C809182
:1020C000160190911701FC01E05EFE4FD081FC01EA
:1020D000EE5AFE4FC0816D2F8C2F0E94B705909154
:1020E0008C01891709F489C090910F018913A4C04C
:1020F00084C0823039F5809011016BE1A62E75E223
:10210000C72EE3EDEE2EE0E0FE2E01E021E046E0FA
:102110006FE589EF97E00E9429118AEF90E00E9415
:1021200026146CE271E083E890E00E94D90D6CE225
:1021300071E087E590E00E94D90D80ED97E00E9464
:1021400026144AC0833009F04BC0D4E013E0C0E04D
:102150008C2F612F0E94EE159F5F892E3BE1A32EED
:1021600042E0C42E58E6E52E50E0F52E01E021E0D5
:1021700046E06FE589EF97E00E94291184E690E040
:102180000E942614CF5FCC3019F766E970E086E034
:1021900091E00E94D90D66E970E086E091E00E942E
:1021A000D90D66E970E086E091E00E94D90D6CE2FD
:1021B00071E08AE491E00E94D90D66E970E086E062
:1021C00091E00E94D90D60E971E088E891E00E94F9
:1021D000D90DD15009F0BBCF0E94B70D10928B01E1
:1021E0008EE190E0DF91CF911F910F91FF90EF90E2
:1021F000CF90AF908F900C942614409110016D2FCA
:102200008C2F0E9495050E94810F8091160190915C
:1022100017010197909317018093160197FF08C04B
:1022200080910D0190E00197909317018093160122
:1022300080910B0190E0D6CF64E670E083E890E0F7
:102240000E94D90D80E00E94F71382E080938B01F9
:10225000DACF2F923F924F925F926F927F928F923E
:102260009F92AF92BF92CF92DF92EF92FF920F9325
:102270001F93CF93DF93CDB7DEB72D970FB6F894AA
:10228000DEBF0FBECDBF9B838A83D42E922EB02E8D
:1022900037010C2D862F90E09C878B87442E512C84
:1022A0009FEF491A590A93E0920F9D87B40EF301EC
:1022B0002491222309F4C4C02A3019F4AB0C0C2D4C
:1022C000BBC0203219F49D85090FB6C0215227FDED
:1022D000B2C0332727FD3095EB85FC852E173F07CD
:1022E0000CF0A9C0249DF001259DF00D349DF00D4A
:1022F00011248A819B81E80FF91FE4901A2D9A2DF1
:102300009D0D9983CF0101961C0197E0900F9C834E
:1023100096E0900F9D8395E0900F9E8394E0900F40
:102320009F8393E0900F988792E0900F998791E0B8
:10233000900F9A879981191709F47AC0F101F490E6
:1023400008370CF070C007FD07C0F7FE05C0482D28
:10235000612F802F0E949505EE2009F464C0073795
:1023600009F461C00F3F3CF0F6FE05C0482D612F17
:102370008A850E949505F1E0EF1609F454C00637EE
:1023800009F451C00E3F3CF0F5FE05C0482D612F09
:1023900089850E94950582E0E81609F444C0053756
:1023A00009F441C00D3F3CF0F4FE05C0482D612FFB
:1023B00088850E94950593E0E916A9F1043799F103
:1023C0000C3F3CF0F3FE05C0482D612F8F810E9429
:1023D0009505E4E0EE1639F1033729F10B3F3CF0A7
:1023E000F2FE05C0482D612F8E810E949505F5E013
:1023F000EF16C9F00237B9F00A3F3CF0F1FE05C014
:10240000482D612F8D810E94950586E0E81659F0D0
:10241000013749F0093F3CF0F0FE05C0482D612F1F
:102420008C810E9495051F5F9FEF291A390A82CF80
:102430000F5F0E0D01C0090DEFEF6E1A7E0A37CF48
:102440002D960FB6F894DEBF0FBECDBFDF91CF91B2
:102450001F910F91FF90EF90DF90CF90BF90AF90C2
:102460009F908F907F906F905F904F903F902F90B4
:1024700008951F920F920FB60F9211248F939F937E
:102480008FEF809397088AE580939508809198084C
:1024900090919908019690939908809398081092CA
:1024A00096089F918F910F900FBE0F901F901895D7
:1024B0001F920F920FB60F9211240F931F932F9319
:1024C0004F935F938F939F93EF93FF9380919A081D
:1024D000EBE9F8E00081803031F0003059F421E080
:1024E00026B9808309C00000000000000000000041
:1024F000000002C00A95008380919508882321F08E
:1025000081508093950820C1809196088C3308F003
:102510001BC1009146000D5F07700E948F12FF9152
:10252000EF913596E00F09940000000000000000D4
:102530000000000000009EE1899FF0011124E35794
:10254000FE4F44E001910BB9049F0BB8049E0BB8F9
:10255000049E0BB801910BB9049F0BB8049E0BB8F5
:10256000049E0BB801910BB9049F0BB8049E0BB8E5
:10257000049E0BB801910BB9049F0BB8049E0BB8D5
:10258000049E0BB801910BB9049F0BB8049E0BB8C5
:10259000049E0BB801910BB9049F0BB8049E0BB8B5
:1025A000049E0BB801910BB9049F0BB8049E0BB8A5
:1025B000049E0BB801910BB9049F0BB8049E0BB895
:1025C000049E0BB801910BB9049F0BB8049E0BB885
:1025D000049E0BB801910BB9049F0BB8049E0BB875
:1025E000049E0BB801910BB9049F0BB8049E0BB865
:1025F000049E0BB801910BB9049F0BB8049E0BB855
:10260000049E0BB801910BB9049F0BB8049E0BB844
:10261000049E0BB801910BB9049F0BB8049E0BB834
:10262000049E0BB801910BB9049F0BB8049E0BB824
:10263000049E0BB801910BB9049F0BB8049E0BB814
:10264000049E0BB801910BB9049F0BB8049E0BB804
:10265000049E0BB801910BB9049F0BB8049E0BB8F4
:10266000049E0BB801910BB9049F0BB8049E0BB8E4
:10267000049E0BB801910BB9049F0BB8049E0BB8D4
:10268000049E0BB801910BB9049F0BB8049E0BB8C4
:10269000049E0BB801910BB9049F0BB8049E0BB8B4
:1026A000049E0BB801910BB9049F0BB8049E0BB8A4
:1026B000049E0BB801910BB9049F0BB8049E0BB894
:1026C000049E0BB801910BB9049F0BB8049E0BB884
:1026D000049E0BB801910BB9049F0BB8049E0BB874
:1026E000049E0BB801910BB9049F0BB8049E0BB864
:1026F000049E0BB801910BB9049F0BB8049E0BB854
:10270000049E0BB801910BB9049F0BB8049E0BB843
:10271000049E0BB801910BB9049F0BB8049E0BB833
:10272000049E0BB8000000E00BB9809197088F5F02
:1027300080939708853041F48FEF809397088091BC
:1027400096088F5F80939608FF91EF919F918F91EC
:102750005F914F912F911F910F910F900FBE0F908E
:102760001F901895CF93F894882321F061E08EE0B4
:102770000E94791410926E0014BCC1E0C5BD17BC54
:1027800018BC16BC61E089E00E94791482E880934D
:1027900080008DE18093810083E091E09093870039
:1027A000809386001092890010928800C6BBC09367
:1027B0006F0061E083E00E94791483E28093B000AF
:1027C0008AE08093B1008FE38093B30087E0809329
:1027D000B400C7BBC093700061E086E00E9479142A
:1027E00061E087E00E9479147894CF910895837016
:1027F000982F990F990F982B892F8295807F892B7D
:10280000EDE8F1E098E0E539F90711F08193FACFAE
:102810000895ADE8B1E0F8E0A539BF0729F0FC0163
:1028200024912D930196F7CF08959C0140E050E04C
:1028300069E07DE380E090E00E940E1620939B0803
:1028400020939A08089510929A080895019750F0DD
:1028500025EF31E021503109C9F3000000000000EC
:102860000000F8CF08958E3008F08E5087702091C8
:10287000120190E4299F90011124822B80937C0007
:1028800080917A00806480937A0080917A0086FD3E
:10289000FCCF809178002091790090E0922B0895F0
:1028A000833081F028F4813099F08230A1F00895CE
:1028B0008730A9F08830B9F08430D1F4809180005D
:1028C0008F7D03C0809180008F7780938000089572
:1028D00084B58F7702C084B58F7D84BD08958091C3
:1028E000B0008F7703C08091B0008F7D8093B000DF
:1028F0000895CF93DF9390E0FC01EA55F54F2491C2
:10290000FC01E654F54F8491882349F190E0880F4B
:10291000991FFC01EE51F54FA591B4918852954F46
:10292000FC01C591D4919FB7611108C0F8948C91B6
:10293000209582238C93888182230AC0623051F4CF
:10294000F8948C91322F309583238C938881822B3D
:10295000888304C0F8948C91822B8C939FBFDF9165
:10296000CF9108950F931F93CF93DF931F92CDB70D
:10297000DEB7282F30E0F901EE56F54F8491F901CA
:10298000EA55F54F1491F901E654F54F04910023EF
:10299000C9F0882321F069830E9450146981E02FD7
:1029A000F0E0EE0FFF1FE852F54FA591B4919FB7ED
:1029B000F8948C91611103C01095812301C0812B83
:1029C0008C939FBF0F90DF91CF911F910F9108952E
:1029D000CF93DF93282F30E0F901EE56F54F849125
:1029E000F901EA55F54FD491F901E654F54FC49138
:1029F000CC2391F081110E945014EC2FF0E0EE0FE7
:102A0000FF1FE253F54FA591B4912C912D2381E046
:102A100090E021F480E002C080E090E0DF91CF916F
:102A2000089508950E94B3150E9411150E94E007B1
:102A3000C0E0D0E00E94D60F2097E1F30E94000092
:102A4000F9CF009729F0BC0180E090E00C94D116FA
:102A50000895CF93DF9300D000D0CDB7DEB79B01B0
:102A6000AC01611571058105910569F069833A83AF
:102A70004B835C830E94CC1629813A814B815C8117
:102A80000E940E1603C060E070E0CB010F900F9023
:102A90000F900F90DF91CF910895CF92DF92EF9238
:102AA000FF926B017C01621773078407950764F43A
:102AB000CA01B9016C197D098E099F090E94291567
:102AC0006C0D7D1D8E1D9F1DFF90EF90DF90CF90B0
:102AD00008951F920F920FB60F9211242F933F93D8
:102AE0008F939F93AF93BF9380919D0890919E0881
:102AF000A0919F08B091A00830919C0823E0230F7B
:102B00002D3720F40196A11DB11D05C026E8230F25
:102B10000296A11DB11D20939C0880939D0890935F
:102B20009E08A0939F08B093A0088091A10890915F
:102B3000A208A091A308B091A4080196A11DB11DFF
:102B40008093A1089093A208A093A308B093A4082F
:102B5000BF91AF919F918F913F912F910F900FBE99
:102B60000F901F901895789484B5826084BD84B5C9
:102B7000816084BD85B5826085BD85B5816085BD78
:102B8000EEE6F0E0808181608083E1E8F0E0108291
:102B9000808182608083808181608083E0E8F0E0D2
:102BA000808181608083E1EBF0E0808184608083BC
:102BB000E0EBF0E0808181608083EAE7F0E08081F3
:102BC0008460808380818260808380818160808353
:102BD0008081806880831092C1000895991B79E0FC
:102BE00004C0991F961708F0961B881F7A95C9F79D
:102BF0008095089597FB072E16F4009407D077FD73
:102C000009D00E94381607FC05D03EF490958195B6
:102C10009F4F0895709561957F4F0895052E97FBFE
:102C20001EF400940E94251657FD07D00E944C16F2
:102C300007FC03D04EF40C94251650954095309522
:102C400021953F4F4F4F5F4F089590958095709518
:102C500061957F4F8F4F9F4F08950E946E16A59FDD
:102C6000900DB49F900DA49F800D911D1124089587
:102C7000AA1BBB1B51E107C0AA1FBB1FA617B707A2
:102C800010F0A61BB70B881F991F5A95A9F78095BE
:102C90009095BC01CD010895A1E21A2EAA1BBB1B81
:102CA000FD010DC0AA1FBB1FEE1FFF1FA217B30718
:102CB000E407F50720F0A21BB30BE40BF50B661F2E
:102CC000771F881F991F1A9469F7609570958095F2
:102CD00090959B01AC01BD01CF010895A29FB00169
:102CE000B39FC001A39F700D811D1124911DB29F40
:102CF000700D811D1124911D08958F929F92AF92A6
:102D0000BF92CF92DF92EF92FF92CF93DF93EC01CD
:102D1000688179818A819B816115710581059105A1
:102D200021F464E279ED8BE597E02DE133EF41E0AA
:102D300050E00E940E1649015A019B01AC01A7EA1E
:102D4000B1E40E942D166B017C01ACEEB4EFA5013D
:102D500094010E94DD16C60ED71EE81EF91EF7FE6E
:102D600006C081E0C81AD108E10880E8F80AC882E4
:102D7000D982EA82FB82C701B6019F77DF91CF91AA
:102D8000FF90EF90DF90CF90BF90AF909F908F908B
:102D900008950E947D16089580E091E00E947D16BE
:102DA0000895609300017093010180930201909354
:102DB00003010895B7FF0C942D160E942D16821B57
:082DC000930B0895F894FFCF76
:102DC8000100000001FFFFC8013C783C3203020308
:042DD80002010100F3
:00000001FF
