:100000000C94F5010C9412020C9412020C9412023E
:100010000C9412020C9412020C9412020C94120210
:100020000C9412020C946F0D0C9412020C94120298
:100030000C9412020C94500D0C9412020C941202A7
:100040000C9463100C9412020C9412020C94120281
:100050000C9412020C9412020C9412020C941202D0
:100060000C9412020C941202594F5520434F4D50DC
:100070004C4554454420414C4C2053544147455332
:1000800021004C4556454C203130004C4556454CDE
:100090002039004C4556454C2038004C4556454CBF
:1000A0002037004C4556454C2036004C4556454CB3
:1000B0002035004C4556454C2034004C4556454CA7
:1000C0002033004C4556454C20320047414D4520D9
:1000D0004F564552005052455353205354415254A9
:1000E0002100390038003700360035003400330075
:1000F0003200310030000180808000800003A0A029
:100100000000000005F8F8F8F8F8000578A070285D
:10011000F000058810204088000560906890680015
:100120000280400000000002408080804000028089
:1001300040404080000300A040A00000030040E0D9
:1001400040000002000000008040030000E00000CA
:10015000000100000000800005081020408000041D
:100160006090909060000340C04040E00004E010C8
:100170006080F00004E0106010E000049090F01047
:10018000100004F080E010E000046080E090600067
:1001900004F0102040400004609060906000046013
:1001A000907010600001008000800000020080005C
:1001B000008040032040804020000300E000E00079
:1001C000000380402040800004E0106000400004F4
:1001D0006090B0807000046090F090900004E09017
:1001E000E090E0000470808080700004E0909090C7
:1001F000E00004F080E080F00004F080E080800007
:10020000047080B0907000049090F090900003E033
:10021000404040E00004F010109060000490A0C046
:10022000A090000480808080F0000588D8A888888D
:10023000000490D0B0909000046090909060000412
:10024000E090E08080000460909090601004E09066
:10025000E0A090000470806010E00003E0404040A7
:1002600040000490909090600003A0A0A0A04000E7
:100270000588A8A8A850000490906090900003A062
:10028000A04040400004F0106080F00002C0808078
:1002900080C0000580402010080002C0404040C0DF
:1002A00000052050880000000400000000F000025B
:1002B0008040000000000300E020E0E0000380E058
:1002C000A0A0E0000300E08080E0000320E0A0A008
:1002D000E0000300E0E080E000024080C080800099
:1002E0000300E0A0E020E00380E0A0A0A0000180E7
:1002F00000808080000200C0404040800380A0C099
:10030000A0A000018080808080000500F8A8A8A837
:10031000000300E0A0A0A0000300E0A0A0E0000314
:1003200000E0A0A0E0800300E0A0A0E0200300E047
:10033000808080000200C08040C0000340E0404058
:1003400040000300A0A0A0E0000300A0A0A0400087
:100350000500A8A8A850000300A040A0A00003002A
:10036000A0A0E020E00200C04080C000036040C0C8
:100370004060000180808080800003C0406040C0F9
:10038000000360C000000000043040E040F00000C6
:100390000000080002010000030407000000000044
:1003A000000000010204081020408001020408102F
:1003B00020010204081020040404040404040402BC
:1003C00002020202020303030303030000000023EE
:1003D000002600290000000000250028002B000056
:1003E000000000240027002A000011241FBECFEFC8
:1003F000D8E0DEBFCDBF11E0A0E0B1E0ECEBF3E26E
:1004000002C005900D92A231B107D9F728E0A2E110
:10041000B1E001C01D92A33AB207E1F70E940C10AF
:100420000C94DC110C94000090E0FC01F595E7952C
:10043000F595E7952EE1629FE00DF11D1124E5573A
:10044000FE4F809590958370880F23E030E0082E52
:1004500001C0220F0A94EAF720959081292301C058
:10046000440F8A95EAF7422B40830895282F30E005
:100470008EE1689FF0011124C901959587959595A6
:100480008795E557FE4FE80FF91F808190E0209592
:1004900030952370220F02C0959587952A95E2F733
:1004A00083700895FF920F931F93CF93DF931F9252
:1004B000CDB7DEB7F82E862F042F64130AC0422F63
:1004C0006F2D0F90DF91CF911F910F91FF900C94A2
:1004D0001402461710F4842F062F801750F411E0F1
:1004E000180F422F6F2D29830E941402812F29811A
:1004F000F4CF0F90DF91CF911F910F91FF9008954E
:100500002F923F924F925F926F927F928F929F9223
:10051000AF92BF92CF92DF92EF92FF920F931F9311
:10052000CF93DF9300D000D01F92CDB7DEB7182F46
:10053000362F893708F0C1C06D3308F0BEC0493787
:1005400008F0BBC02D3308F0B8C084132FC062136D
:100550001AC0402F0F900F900F900F900F90DF91C7
:10056000CF911F910F91FF90EF90DF90CF90BF90B0
:10057000AF909F908F907F906F905F904F903F9043
:100580002F900C941402261710F4322F262F3217B6
:1005900008F093C0FF24F394F30E402F632F812FB4
:1005A0002B830E9414023F2D2B81F1CF62131CC0BC
:1005B000202F682F832F0F900F900F900F900F9088
:1005C000DF91CF911F910F91FF90EF90DF90CF902F
:1005D000BF90AF909F908F907F906F905F904F9063
:1005E0003F902F900C945202C82ED12C642E712C67
:1005F000481730F4A601461957093A018FEF03C096
:100600006C187D0881E0E32EF12C422F50E0231777
:1006100038F49701241B350B3D832C833FEF06C034
:100620009A012E193F093D832C8331E04C815D8175
:100630006416750644F04C812D817D826C82642E97
:10064000722E10E001C011E0660C771C5301EC81A2
:10065000FD81AE1ABF0AEE0FFF1FFA83E983812CDA
:10066000912C432E552447FC5094282E332427FCEC
:1006700030942C813D8128153905FCF0402F6E2DDA
:100680008C2D0E941402B7FC0BC0113019F4C20C5F
:10069000D31C02C0E40CF51C29813A81A21AB30ACA
:1006A000113019F4E40CF51C02C0C20CD31CA60CCA
:1006B000B71C3FEF831A930ADCCF0F900F900F9077
:1006C0000F900F90DF91CF911F910F91FF90EF90BE
:1006D000DF90CF90BF90AF909F908F907F906F9062
:1006E0005F904F903F902F900895883720F46C339F
:1006F00010F40C94140208952F923F924F925F923F
:100700006F927F928F929F92AF92BF92CF92DF9221
:10071000EF92FF920F931F93CF93DF9300D000D0FF
:10072000CDB7DEB7F82E162FE42E38E7381708F4C9
:10073000AFC06D3308F0ACC0341708F4A9C02D3336
:1007400008F0A6C084132BC0621319C0402F0F906D
:100750000F900F900F90DF91CF911F910F91FF900D
:10076000EF90DF90CF90BF90AF909F908F907F9051
:100770006F905F904F903F902F900C9475032617C9
:1007800010F4122F262F121708F082C0402F612F6D
:100790008F2D2A830E9475031F5F2A81F4CF621375
:1007A0000EC0481710F4F42EE82EFE1408F070C0A6
:1007B000402F612F8F2D0E947503F394F6CFC82E22
:1007C000D12C642E712C481730F4C6018619970974
:1007D0003C018FEF03C06C187D0881E0E12EF12C05
:1007E000422F50E0211738F49701241B350B3C832E
:1007F0002B839FEF06C09A012E193F093C832B8360
:1008000091E02B813C816216730644F03B812C8180
:100810007C826B82632E722E10E001C011E0660CA8
:10082000771C53012B813C81A21AB30A220F331F7C
:10083000812C912C492E552447FC5094282E33248A
:1008400027FC3094EB81FC81E815F9050CF1402F71
:100850006E2D8C2D2A8339830E9475032A8139815C
:10086000B7FC09C0113019F4C20CD31C02C0E40C4F
:10087000F51CA21AB30A113019F4E40CF51C02C0DD
:10088000C20CD31CA60CB71C8FEF881A980ADACFBB
:100890000F900F900F900F90DF91CF911F910F91BC
:1008A000FF90EF90DF90CF90BF90AF909F908F9090
:1008B0007F906F905F904F903F902F90089581E0D0
:1008C0000E94C90E85E00E942D0F0E941B1060E05F
:1008D0008BE00E94730F60E08CE00E94730F60E079
:1008E0008DE00E94730F60E084E00E94730F60E06F
:1008F00085E00E94730F61E08AE00E94730F61E05F
:100900008AE00C94AC0F24E030E040E050E061E07D
:1009100070E080E090E00E94471060930D0161302C
:1009200021F4109283018FEF09C0623011F481E04D
:100930000BC0633031F41092830181E08093820117
:1009400007C0643029F48FEF8093830110928201F5
:1009500010921701109216011092190183E08093F2
:100960000C0182E090E09093150180931401209196
:100970000B0180E591E0AEE1B1E0FC013E2F381BB8
:10098000321718F411921D92F9CF8CE38093500125
:100990008EE180931E019DE39093510180931F018E
:1009A0009EE39093520180932001089585E00E9478
:1009B000E20F21E0892B09F420E0209388018DE0EB
:1009C0000E94E20F21E0892B09F420E020938701A7
:1009D00084E00E94E20F21E0892B09F420E02093BB
:1009E00086018CE00E94E20F21E0892B09F420E0CF
:1009F000209385018BE00E94E20F80938401809117
:100A00008801811104C080918701882321F0109210
:100A100086011092850180918601811104C0809128
:100A20008501882321F01092880110928701089592
:100A30000F93CF93C82F80911D0160911C01685FB7
:100A400040910901480F41500C2F262F0E947C0332
:100A500080911D0160911C0190910801690F615006
:100A600040910901480F262F0E947C0360911C01D0
:100A700080911D0120910801260F2150685F482FA9
:100A80000E947C0360911C0180911D0190910901DD
:100A9000890F815020910801260F2150685F482F4F
:100AA0000E947C03CF910F9108950F93CF93C62F8F
:100AB0008230B9F460911C0180911D018C5E2091FF
:100AC0000801260F2C506C5E0C2F482F0E947C03CF
:100AD00060911C0180911D0190910901890F845141
:100AE00054C08330E9F480911D0160911C016F5E58
:100AF00040910901480F4E510C2F262F825E0E9413
:100B00007C0380911D0160911C0190910801690F87
:100B10006A5040910901480F4E51262F825ECBC288
:100B20008430C1F580911D0160911C016F5E409180
:100B30000901480F4E510C2F262F825E0E947C0324
:100B400080911D0160911C0190910801690F6A500C
:100B500040910901480F4E51262F825E0E947C036E
:100B600060911C0180911D01815F20910801260F79
:100B70002C506C5E482F0E947C0360911C01809178
:100B80001D0190910901890F8F5020910801260FB6
:100B90002C5039C08530C9F580911D0160911C0130
:100BA0006F5E40910901480F4E510C2F262F815F37
:100BB0000E947C0380911D0160911C0190910801AD
:100BC000690F6A5040910901480F4E50262F825EEE
:100BD0000E947C0360911C0180911D01815F209126
:100BE0000801260F2C506F5E482F0E947C036091F5
:100BF0001C0180911D0190910901890F8F50209156
:100C00000801260F2A506C5E55C2863009F0A8C034
:100C100080911D0160911C01615F44E1480F0C2F20
:100C2000262F865F0E947C0360911C0180911D012C
:100C30008C5E29E1260F615F482F0E947C03809122
:100C40001D0160911C01675E48E2480F262F8C5EF3
:100C50000E947C0380911D0160911C01909108010C
:100C6000690F695044E1480F262F865F0E947C037C
:100C70006091080180911C01680F80911D018C5EBC
:100C80002DEE260F6850482F0E947C0380911D0195
:100C900060911C0190910801690F635148E2480F6F
:100CA000262F8C5E0E947C038091090190911D018A
:100CB000890F60911C01615F4CEE480F262F8A500E
:100CC0000E947C0360911C0180911D01909109019B
:100CD000890F845129E1260F615F482F0E947C0310
:100CE0008091090190911D01890F60911C01675E3F
:100CF00048ED480F262F83510E947C038091090103
:100D000090911D01890F60911C0190910801690F5C
:100D100069504CEE480F262F8A500E947C03609148
:100D2000080180911C01680F80911D0190910901BB
:100D3000890F84512DEE260F6850482F0E947C03A6
:100D40008091090190911D01890F60911C01909182
:100D50000801690F635148ED480F262F8451ABC13C
:100D6000873009F051C060911C0180911D01865FA0
:100D700020910801260F2650625F0C2F482F0E94F9
:100D80007C0360911C0180911D018C5E2091080103
:100D9000260F2650625F482F0E947C0360911C0141
:100DA00080911D01825E20910801260F2650625F0E
:100DB000482F0E947C0360911C0180911D0190913D
:100DC0000901890F8A5020910801260F2650625F81
:100DD000482F0E947C0360911C0180911D0190911D
:100DE0000901890F845120910801260F2650625F66
:100DF000482F0E947C0360911C0180911D019091FD
:100E00000901890F8E51C2C0883099F580911D016A
:100E100060911C01605E4EE1480F0C2F262F865F0B
:100E20000E947C038091090190911D01890F6091BE
:100E30001C01605E42EE480F262F8A500E947C0300
:100E400080911D0160911C016E5E40910901480F67
:100E50004852262F885D0E947C0380911D0160917D
:100E60001C01605D40910901480F4852262F885DA2
:100E700022C1893009F090C060911C0180911D0150
:100E800090910901890F8A5020910801260F265060
:100E9000625F0C2F482F0E947C0360911C0180919F
:100EA0001D0190910901890F845120910801260F9D
:100EB0002E506A5E482F0E947C0360911C01809135
:100EC0001D0190910901890F8E5120910801260F73
:100ED0002650625F482F0E947C0360911C01809124
:100EE0001D0190910901890F885220910801260F58
:100EF0002E506A5E482F0E947C0360911C018091F5
:100F00001D0190910901890F825320910801260F3C
:100F10002650625F482F0E947C0360911C018091E3
:100F20001D01865F20910801260F2650625F482F21
:100F30000E947C0360911C0180911D018C5E2091B8
:100F40000801260F2E506A5E482F0E947C03609194
:100F50001C0180911D01825E20910801260F265000
:100F6000625F482F0E947C0360911C0180911D01EB
:100F7000885D20910801260F2E506A5E482F0E943E
:100F80007C0360911C0180911D018E5C2091080101
:100F9000260F2650625F8EC0813009F08EC06091AE
:100FA0001C0180911D0190910901890F8A502091A7
:100FB0000801260F2750625F0C2F482F0E947C03E8
:100FC00080911D0160911C01625F40910901480FF1
:100FD0004A50262F865F0E947C0380911D016091FC
:100FE0001C0190910801690F675040910901480F59
:100FF0004950262F865F0E947C0360911C018091DE
:101000001D01865F2CE1260F625F482F0E947C0342
:1010100060911C0180911D01865F20910801260FBF
:1010200027506F5D482F0E947C0360911C018091C6
:101030001D0190910901890F845126E2260F6B5EF4
:10104000482F0E947C0360911C0180911D019091AA
:101050000901890F845120910801260F2E50655DEA
:10106000482F0E947C0380911D0160911C016B5EE2
:1010700040910901480F4451262F8C5E0E947C0349
:1010800080911D0160911C0190910801690F6E50C3
:1010900040910901480F4351262F8C5E0E947C032A
:1010A00060911C0180911D018C5E20910801260F2A
:1010B0002E506B5E482F0E947C03CF910F910895B4
:1010C000CF93DF938091140190911501FC01E25EB2
:1010D000FE4FDC01A05BBE4F40918A0160818C9184
:1010E0000E941402809114019091150120910C012D
:1010F00030E021503109DC01A05BBE4F50918301EB
:10110000FC01E25EFE4F409182018217930739F4A1
:1011100080915001850F8C9380911E010BC0019628
:10112000EC01C05BDE4F2881250F2C93DC01A25E11
:10113000BE4F8C91840F8083DF91CF910895CF9320
:10114000DF9380918901813009F05CC0D0911A0150
:10115000C0911B016D2F8C2F0E94360290910E01C1
:10116000891306C040918A016D2F8C2F0E941402B2
:1011700060911D0170E0809109019B01280F311DD4
:1011800026503109442737FD4095542F6A5F7F4F21
:10119000882777FD8095982F0E94471060931B0148
:1011A00060911C0170E0809108019B01280F311DA6
:1011B0002E503109442737FD4095542F625F7F4FF1
:1011C000882777FD8095982F0E944710C62F60933F
:1011D0001A01D0911B018D2F0E94360290911001AF
:1011E000891709F4AECF90910F01891709F4A9CF9F
:1011F00040910E016C2F8D2F0E9414021092170146
:1012000010921601DF91CF9108956F927F928F9285
:10121000AF92CF92DF92EF92FF920F931F93CF93F3
:10122000DF9320910401309105018091120190918A
:1012300013012817390709F4B8C0D0918A01DF3F9C
:1012400009F0A8C000E020E043E260E080E00E94F6
:10125000800226E040E060E080E00E94800226E01C
:1012600043E260E083E20E94800226E043E266E01F
:1012700080E00E948002C0911201D0911301D12C14
:1012800019E17AE0672E712C1C161D060CF062C065
:10129000CE01B3010E94F41080900E01A12CC12E4A
:1012A000009729F464EFE62E60E0F62E43C081300B
:1012B000910529F452EFE52E50E0F52E3BC0823027
:1012C000910529F440EFE42E40E0F42E33C0833042
:1012D000910529F43EEEE32E30E0F32E2BC084304E
:1012E000910529F42CEEE22E20E0F22E23C0853069
:1012F000910529F49AEEE92E90E0F92E1BC0863074
:10130000910529F488EEE82E80E0F82E13C087308E
:10131000910529F406EEE02E00E0F02E0BC00897B0
:1013200029F4B4EEEB2EB0E0FB2E04C0A2EEEA2EC0
:10133000A0E0FA2E01E021E046E06FE586EF90E0C4
:101340000E94400C1550CE01B3010E94F410EB0135
:10135000D3949ACFC6E0CD19CC2399F080900E019A
:10136000A12CC12EF4EFEF2EF0E0FF2E01E021E0E2
:1013700046E06FE586EF90E00E94400C1550C150AA
:10138000EBCF80911201909113019093050180930E
:1013900004010BC0C0E02D2F43E260E08C2F0E94BF
:1013A0005202CF5FC630B9F74DCFDF91CF911F9179
:1013B0000F91FF90EF90DF90CF90AF908F907F9044
:1013C0006F90089580E00E940E0F1092130110920A
:1013D00012018FEF9FEF909305018093040110920B
:1013E000180110921D0110921C0188E780930901D9
:1013F0008CE38093080181E0809307010C948304BF
:101400006F927F928F92AF92CF92EF92FF920F9353
:10141000CF93DF93809107018F5F809307018091C5
:101420000A01855080930A0180E00E940E0F80918E
:101430000701823059F480900F016BE1A62E7BE208
:10144000C72EE3ECEE2EE0E0FE2E67C0833059F4A9
:1014500080900F013BE1A32E4BE2C42E5BEBE52E07
:1014600050E0F52E5AC0843059F480900F018BE182
:10147000A82E9BE2C92E23EBE22E20E0F22E4DC0D7
:10148000853059F480900E01CBE1AC2EDBE2CD2EFD
:101490000BEAE02E00E0F02E40C0863059F4809038
:1014A0000E01FBE1AF2EABE2CA2EB3EAEB2EB0E0A9
:1014B000FB2E33C0873059F480900E016BE1A62ECD
:1014C0007BE2C72EEBE9EE2EE0E0FE2E26C0883050
:1014D00059F4809010013BE1A32E4BE2C42E53E956
:1014E000E52E50E0F52E19C0893059F48090100196
:1014F0008BE1A82E9BE2C92E2BE8E22E20E0F22EF3
:101500000CC08A30F1F480901001CBE1AC2ED8E20F
:10151000CD2E02E8E02E00E0F02E01E021E046E0D2
:101520006FE586EF90E00E94400C80ED97E00E940E
:10153000200F80E00E940E0F0E9483041092190178
:1015400028C0C0E0D0E0B3E06B2E712CCE01B30117
:101550000E94F41088248394880EEBE1AE2EF2E012
:10156000CF2EA8E6EA2EA0E0FA2E01E021E046E028
:101570006FE586EF90E00E94400C84E690E00E94C8
:10158000200F2196C831D10509F70E94E209109277
:101590008901DF91CF910F91FF90EF90CF90AF90A5
:1015A0008F907F906F900895841708F4842F6817A8
:1015B00008F4862F08958091140190911501FC0183
:1015C000E05BFE4F308120911B01321325C0FC01EE
:1015D000E25EFE4F908180911A0198131DC08091A8
:1015E0000C0141E060910B018B5F0E94D40A809353
:1015F0000C0180911201909113010A9690931301AE
:1016000080931201809119018F5F809319018A30B4
:10161000C9F40E94000A16C08091060190E0209152
:101620001601309117012817390774F080911201C3
:1016300040E06FE385500E94D40A90E0909313013C
:10164000809312010C949F0808958F92AF92CF92CD
:10165000EF92FF920F93CF93DF93809118018F5FEA
:10166000809318010E94D60480918901811142C0A3
:1016700084E690E00E94200F80911801C3E06C2F57
:101680000E94E8109F5F092F27E248E767E280E0A9
:101690000E947C03809118016C2F0E94E8109F5FCC
:1016A000892EDBE1AD2E00E2C02E85EDE82E80E034
:1016B000F82E01E021E046E06FE586EF90E00E9421
:1016C000400C809118016C2F0E94E8109F5F092F39
:1016D00024E148E764E180E00E947C03C09184013A
:1016E000C13009F09BC00E94E209C09389010E94A9
:1016F0009F0894C0813009F075C0809116019091C7
:1017000017010196909317018093160180910D01A6
:10171000823011F08430F1F480918801882359F0EF
:101720001092860110928501109283018FEF8093B1
:10173000820181E02EC080918701882361F110929F
:101740008601109285011092830181E080938201CD
:1017500083E01FC08D7F8130F1F490918501992342
:1017600051F01092880110928701109282018093AB
:10177000830182E00EC080918601882361F010927F
:10178000880110928701109282018FEF809383016C
:1017900084E080930D010E94050960911001809101
:1017A00007010E945505809110010E9418050E94B2
:1017B00060088091140190911501FC01E25EFE4FDA
:1017C000D081FC01E05BFE4FC0816D2F8C2F0E9409
:1017D000360290918A01891769F190910E0189135F
:1017E00048C028C08230D1F480901001FBE1AF2EB8
:1017F000A5E2CA2EBBECEB2EB0E0FB2E01E021E00F
:1018000046E06FE586EF90E00E94400C80ED97E0A7
:101810000E94200F0E94E209109289018EE190E05F
:10182000DF91CF910F91FF90EF90CF90AF908F907D
:101830000C94200F40910F016D2F8C2F0E941402E9
:101840000E94DB0A809114019091150101979093F9
:1018500015018093140197FF08C080910C0190E05E
:101860000197909315018093140180910A0190E0F3
:10187000D7CF80E00E940E0F82E080938901E0CFF5
:101880002F923F924F925F926F927F928F929F9290
:10189000AF92BF92CF92DF92EF92FF920F931F937E
:1018A000CF93DF93CDB7DEB72D970FB6F894DEBF99
:1018B0000FBECDBF9B838A83D42E922EB02E3701CC
:1018C0000C2D862F90E09C878B87442E512C9FEF08
:1018D000491A590A93E0920F9D87B40EF30124919F
:1018E000222309F4C4C02A3019F4AB0C0C2DBBC060
:1018F000203219F49D85090FB6C0215227FDB2C0D0
:10190000332727FD3095EB85FC852E173F070CF01C
:10191000A9C0249DF001259DF00D349DF00D1124EA
:101920008A819B81E80FF91FE4901A2D9A2D9D0D55
:101930009983CF0101961C0197E0900F9C8396E05C
:10194000900F9D8395E0900F9E8394E0900F9F836E
:1019500093E0900F988792E0900F998791E0900F15
:101960009A879981191709F47AC0F101F490083720
:101970000CF070C007FD07C0F7FE05C0482D612FB1
:10198000802F0E941402EE2009F464C0073709F486
:1019900061C00F3F3CF0F6FE05C0482D612F8A85DF
:1019A0000E941402F1E0EF1609F454C0063709F45E
:1019B00051C00E3F3CF0F5FE05C0482D612F8985D2
:1019C0000E94140282E0E81609F444C0053709F4C5
:1019D00041C00D3F3CF0F4FE05C0482D612F8885C5
:1019E0000E94140293E0E916A9F1043799F10C3F23
:1019F0003CF0F3FE05C0482D612F8F810E94140238
:101A0000E4E0EE1639F1033729F10B3F3CF0F2FE2A
:101A100005C0482D612F8E810E941402F5E0EF165B
:101A2000C9F00237B9F00A3F3CF0F1FE05C0482D7D
:101A3000612F8D810E94140286E0E81659F001376B
:101A400049F0093F3CF0F0FE05C0482D612F8C8124
:101A50000E9414021F5F9FEF291A390A82CF0F5F7D
:101A60000E0D01C0090DEFEF6E1A7E0A37CF2D96CD
:101A70000FB6F894DEBF0FBECDBFDF91CF911F919F
:101A80000F91FF90EF90DF90CF90BF90AF909F901D
:101A90008F907F906F905F904F903F902F90089520
:101AA0001F920F920FB60F9211248F939F938FEF77
:101AB000809395088AE58093930880919608909189
:101AC000970801969093970880939608109294082F
:101AD0009F918F910F900FBE0F901F9018951F929E
:101AE0000F920FB60F9211240F931F932F934F93C2
:101AF0005F938F939F93EF93FF9380919808E9E909
:101B0000F8E00081803031F0003059F421E026B94E
:101B1000808309C0000000000000000000000000F9
:101B200002C00A95008380919308882321F0815098
:101B30008093930820C1809194088C3308F01BC1D6
:101B4000009146000D5F07700E94A60DFF91EF9176
:101B50003596E00F0994000000000000000000002E
:101B6000000000009EE1899FF0011124E557FE4F1F
:101B700044E001910BB9049F0BB8049E0BB8049E7E
:101B80000BB801910BB9049F0BB8049E0BB8049ECF
:101B90000BB801910BB9049F0BB8049E0BB8049EBF
:101BA0000BB801910BB9049F0BB8049E0BB8049EAF
:101BB0000BB801910BB9049F0BB8049E0BB8049E9F
:101BC0000BB801910BB9049F0BB8049E0BB8049E8F
:101BD0000BB801910BB9049F0BB8049E0BB8049E7F
:101BE0000BB801910BB9049F0BB8049E0BB8049E6F
:101BF0000BB801910BB9049F0BB8049E0BB8049E5F
:101C00000BB801910BB9049F0BB8049E0BB8049E4E
:101C10000BB801910BB9049F0BB8049E0BB8049E3E
:101C20000BB801910BB9049F0BB8049E0BB8049E2E
:101C30000BB801910BB9049F0BB8049E0BB8049E1E
:101C40000BB801910BB9049F0BB8049E0BB8049E0E
:101C50000BB801910BB9049F0BB8049E0BB8049EFE
:101C60000BB801910BB9049F0BB8049E0BB8049EEE
:101C70000BB801910BB9049F0BB8049E0BB8049EDE
:101C80000BB801910BB9049F0BB8049E0BB8049ECE
:101C90000BB801910BB9049F0BB8049E0BB8049EBE
:101CA0000BB801910BB9049F0BB8049E0BB8049EAE
:101CB0000BB801910BB9049F0BB8049E0BB8049E9E
:101CC0000BB801910BB9049F0BB8049E0BB8049E8E
:101CD0000BB801910BB9049F0BB8049E0BB8049E7E
:101CE0000BB801910BB9049F0BB8049E0BB8049E6E
:101CF0000BB801910BB9049F0BB8049E0BB8049E5E
:101D00000BB801910BB9049F0BB8049E0BB8049E4D
:101D10000BB801910BB9049F0BB8049E0BB8049E3D
:101D20000BB801910BB9049F0BB8049E0BB8049E2D
:101D30000BB801910BB9049F0BB8049E0BB8049E1D
:101D40000BB801910BB9049F0BB8049E0BB8049E0D
:101D50000BB8000000E00BB9809195088F5F80936D
:101D60009508853041F48FEF809395088091940811
:101D70008F5F80939408FF91EF919F918F915F9176
:101D80004F912F911F910F910F900FBE0F901F90A9
:101D90001895CF93F894882321F061E08EE00E949B
:101DA000730F10926E0014BCC1E0C5BD17BC18BC07
:101DB00016BC61E089E00E94730F82E88093800086
:101DC0008DE18093810083E091E090938700809380
:101DD00086001092890010928800C6BBC0936F00E5
:101DE00061E083E00E94730F83E28093B0008AE099
:101DF0008093B1008FE38093B30087E08093B400B9
:101E0000C7BBC093700061E086E00E94730F61E081
:101E100087E00E94730F7894CF9108958370982F74
:101E2000990F990F982B892F8295807F892BEBE84A
:101E3000F1E098E0E339F90711F08193FACF0895C2
:101E4000019750F025EF31E021503109C9F300002E
:101E5000000000000000F8CF08958E3008F08E508A
:101E600087702091110190E4299F90011124822B09
:101E700080937C0080917A00806480937A008091C6
:101E80007A0086FDFCCF809178002091790090E067
:101E9000922B0895833081F028F4813099F08230BC
:101EA000A1F008958730A9F08830B9F08430D1F4DA
:101EB000809180008F7D03C0809180008F77809318
:101EC0008000089584B58F7702C084B58F7D84BD6E
:101ED00008958091B0008F7703C08091B0008F7D0E
:101EE0008093B0000895CF93DF9390E0FC01ED550F
:101EF000FC4F2491FC01E954FC4F8491882349F163
:101F000090E0880F991FFC01E152FC4FA591B4911C
:101F10008B529C4FFC01C591D4919FB7611108C0B1
:101F2000F8948C91209582238C93888182230AC017
:101F3000623051F4F8948C91322F309583238C9336
:101F40008881822B888304C0F8948C91822B8C9397
:101F50009FBFDF91CF9108950F931F93CF93DF938E
:101F60001F92CDB7DEB7282F30E0F901E157FC4FC3
:101F70008491F901ED55FC4F1491F901E954FC4F9E
:101F800004910023C9F0882321F069830E944A0F3D
:101F90006981E02FF0E0EE0FFF1FEB52FC4FA5919F
:101FA000B4919FB7F8948C91611103C0109581236F
:101FB00001C0812B8C939FBF0F90DF91CF911F9118
:101FC0000F910895CF93DF93282F30E0F901E15767
:101FD000FC4F8491F901ED55FC4FD491F901E9547E
:101FE000FC4FC491CC2391F081110E944A0FEC2F39
:101FF000F0E0EE0FFF1FE553FC4FA591B4912C913B
:102000002D2381E090E021F480E002C080E090E0A8
:10201000DF91CF91089508950E94AD100E940B109A
:102020000E945F04C0E0D0E00E94250B2097E1F3FE
:102030000E940000F9CF009729F0BC0180E090E0F9
:102040000C94CB110895CF93DF9300D000D0CDB77F
:10205000DEB79B01AC01611571058105910569F041
:1020600069833A834B835C830E94C61129813A813C
:102070004B815C810E94081103C060E070E0CB01DD
:102080000F900F900F900F90DF91CF910895CF9206
:10209000DF92EF92FF926B017C0162177307840756
:1020A000950764F4CA01B9016C197D098E099F096D
:1020B0000E9423106C0D7D1D8E1D9F1DFF90EF90C3
:1020C000DF90CF9008951F920F920FB60F921124B8
:1020D0002F933F938F939F93AF93BF9380919B08D0
:1020E00090919C08A0919D08B0919E0830919A080B
:1020F00023E0230F2D3720F40196A11DB11D05C04B
:1021000026E8230F0296A11DB11D20939A08809303
:102110009B0890939C08A0939D08B0939E08809183
:102120009F089091A008A091A108B091A2080196E3
:10213000A11DB11D80939F089093A008A093A108B2
:10214000B093A208BF91AF919F918F913F912F9132
:102150000F900FBE0F901F901895789484B58260F1
:1021600084BD84B5816084BD85B5826085BD85B53B
:10217000816085BDEEE6F0E0808181608083E1E8EA
:10218000F0E0108280818260808380818160808322
:10219000E0E8F0E0808181608083E1EBF0E0808125
:1021A00084608083E0EBF0E0808181608083EAE7F7
:1021B000F0E0808184608083808182608083808180
:1021C000816080838081806880831092C10008953F
:1021D000991B79E004C0991F961708F0961B881F79
:1021E0007A95C9F78095089597FB072E16F4009409
:1021F00007D077FD09D00E94321107FC05D03EF4CC
:10220000909581959F4F0895709561957F4F0895A2
:10221000052E97FB1EF400940E941F1157FD07D056
:102220000E94461107FC03D04EF40C941F115095E8
:102230004095309521953F4F4F4F5F4F08959095B2
:102240008095709561957F4F8F4F9F4F08950E94A5
:102250006811A59F900DB49F900DA49F800D911DB6
:1022600011240895AA1BBB1B51E107C0AA1FBB1F65
:10227000A617B70710F0A61BB70B881F991F5A9512
:10228000A9F780959095BC01CD010895A1E21A2E81
:10229000AA1BBB1BFD010DC0AA1FBB1FEE1FFF1F0A
:1022A000A217B307E407F50720F0A21BB30BE40B5A
:1022B000F50B661F771F881F991F1A9469F76095A1
:1022C0007095809590959B01AC01BD01CF0108955B
:1022D000A29FB001B39FC001A39F700D811D112467
:1022E000911DB29F700D811D1124911D08958F9233
:1022F0009F92AF92BF92CF92DF92EF92FF92CF93D5
:10230000DF93EC01688179818A819B816115710578
:102310008105910521F464E279ED8BE597E02DE1EB
:1023200033EF41E050E00E94081149015A019B013E
:10233000AC01A7EAB1E40E9427116B017C01ACEE6D
:10234000B4EFA50194010E94D711C60ED71EE81E56
:10235000F91EF7FE06C081E0C81AD108E10880E83E
:10236000F80AC882D982EA82FB82C701B6019F7748
:10237000DF91CF91FF90EF90DF90CF90BF90AF9023
:102380009F908F9008950E947711089580E091E0CA
:102390000E9477110895609300017093010180936A
:1023A0000201909303010895B7FF0C9427110E9436
:0C23B0002711821B930B0895F894FFCFB7
:1023BC0001000000FFFFC8013C783C32030203021D
:0223CC0001010D
:00000001FF
