:100000000C9472050C948F050C948F050C948F053D
:100010000C948F050C948F050C948F050C948F0510
:100020000C948F050C94BA100C948F050C948F05CA
:100030000C948F050C949B100C948F050C948F05D9
:100040000C94BA130C948F050C948F050C948F05A7
:100050000C948F050C948F050C948F050C948F05D0
:100060000C948F050C948F05594F5520434F4D50DC
:100070004C4554454420414C4C2053544147455332
:1000800021004C4556454C203130004C4556454CDE
:100090002039004C4556454C2038004C4556454CBF
:1000A0002037004C4556454C2036004C4556454CB3
:1000B0002035004C4556454C2034004C4556454CA7
:1000C0002033004C4556454C20320047414D4520D9
:1000D0004F5645520039003800370036003500349D
:1000E000003300320031003000000000000000004A
:1000F0000000000000000000000000000000000000
:1001000000000000000000000000000000000000EF
:1001100000000000000000000000000000000000DF
:1001200000000000000000000000000000000000CF
:1001300000000000000000000000000000000000BF
:1001400000000000000000000000000000000000AF
:10015000000000000000000000000000000000009F
:10016000000000000000000000000000000000008F
:10017000000000000000000000000000000000007F
:10018000000000000000000000000000000000006F
:10019000000000000000000000000000000000005F
:1001A000000000000000000000000000000000004F
:1001B000000000000000000000000000000000003F
:1001C00000FC7F14000000000000000000000000A0
:1001D000000000000000000000000000000000FC23
:1001E0007F1400000000000000000000000000007C
:1001F00000000000000000000000000000F17FC4CB
:1002000000000000000000000000000000000000EE
:1002100000000000000000000000030103C5000012
:1002200000000000000000000000000000000000CE
:100230000000000000000000030103C500000000F2
:1002400000000000000000000000000000000000AE
:10025000000000000000030503C5000000000000CE
:10026000000000000000000000000000000000008E
:100270000000000003C53F1500000FFFF03F00FC29
:100280000FFFF0FC03F03FFFF00000000000000053
:10029000000000153C5500003FFFFC3FC0FC3FFF45
:1002A000FCFC03F0FFFFF000000000000000000075
:1002B0000055551400003FFFFC3FC0FC3FFFFCFC15
:1002C00003F0FFFFF000000000000000000000004D
:1002D000005400003F00FC3FF0FC3F00FCFC03F03A
:1002E000FC000000000000000000000000A85550C5
:1002F00000003F00003FF0FC3F00FCFC03F0FC006E
:10030000000000000000000000000A80D54000004E
:100310003FFFF03FF0FC3FFFFCFFFFF0FFFC000061
:100320000000000000000002AA01550500003FFF88
:10033000FC3F3CFC3FFFFCFFFFC0FFFC0000000057
:1003400000000000000AA803FD1540000FFFFC3F5D
:100350000FFC3FFFFCFFFFF0FFFC0000000000006F
:10036000000000002001551550000000FC3F0FFC6C
:100370003F00FCFC03F0FC00000000000000000057
:100380000002A003D55555403F00FC3F0FFC3F0045
:10039000FCFC03F0FC000000000000000000000076
:1003A0000003D55155403FFFFC3F03FC3F00FCFCE0
:1003B00003F0FFFFF000000000000000000000015B
:1003C000554054003FFFFC3F03FC3F00FCFC03F0A2
:1003D000FFFFF00000000000000000000001554099
:1003E00054000FFFF03F00FC3F00FCFC03F03FFF18
:1003F000F00000000000000000000000000000000D
:1004000000000000000000000000000000000000EC
:1004100000000000000000000000000000000000DC
:1004200000000000000000000000000000000000CC
:1004300000000000000000000000000000000000BC
:1004400000000000000000000000000000000000AC
:10045000000000000000000000000000000000009C
:10046000000000000000000000000000000000008C
:10047000000000000000000000000000000000007C
:10048000000000000000000000000000000000006C
:10049000000000000000000000000000000000005C
:1004A000000000000000000000000000000FFFFF3F
:1004B000FFFFFFFFFFFFFFFFFFFFFFFFFFFFFFFF4C
:1004C000FFFFF0000000000000000000000000003E
:1004D000000000000000000000000000000000001C
:1004E000000000000000000000000000000000000C
:1004F00000000000000000000000000000000000FC
:1005000000000000000000000000000000000000EB
:1005100000000000000000000000000000000000DB
:1005200000000000000000000000000000000000CB
:1005300000000000000000000000000000000000BB
:1005400000000000000000000000000000000000AB
:10055000000000000000000000000000000000009B
:10056000000000000000000000000000000000008B
:10057000000000000000000000000000000000007B
:10058000000000000000000000000000000000006B
:100590000000000000000000000000000000002A31
:1005A000A0AA80AA80AA02A8002A82AA8A82AA02F5
:1005B000AA8000000000000000000000002828A021
:1005C000A0A002828A0A00A0A0280A8282802800B5
:1005D00000000000000000000000002828A0A0A0EB
:1005E00002800A0000A0002828A2828028000000C3
:1005F0000000000000000000002828A0A0AA82A897
:100600000AA000AA002828A282802800000000007A
:10061000000000000000002AA0AA80A0002A80AAF2
:10062000000AA02828A2AA0028000000000000005C
:1006300000000000002800A280A00002800A000044
:10064000A028AAAA8A0028000000000000000000DC
:100650000000002800A0A0A002828A0A00A0A02812
:10066000A02A828028000000000000000000000096
:10067000002800A028AA80AA02A8002A8028A02A70
:1006800080A0280000000000000000000000000022
:10069000000000000000000000000000000000005A
:1006A000000000000000000000000000000000004A
:1006B000000000000000000000000000000000003A
:1006C000000000000000000000000000000000002A
:1006D000000000000000000000000000000000001A
:1006E000000000000000000000000000000000000A
:1006F00000000000000000000000000000000000FA
:1007000000000000000000000000000000000000E9
:1007100000000000000000000000000000000000D9
:1007200000000000000000000000000000000000C9
:1007300000000000000000000000000000000000B9
:1007400000000000000000000000000000000000A9
:100750000000000000000000000000000000000099
:100760000000000000000000000000000000000089
:100770000000000000000000000000000000000079
:100780000000000000000000000000000000000069
:100790000000000000000000000000000000000059
:1007A0000000000000000000000000000000000049
:1007B0000000000000000000000000000000000039
:1007C0000000000000000000000000000000000029
:1007D0000000000000000000000000000000000019
:1007E0000000000000000000000000000000000009
:1007F000000180808000800003A0A00000000005B0
:10080000F8F8F8F8F8000578A07028F000058810CE
:1008100020408800056090689068000280400000D9
:100820000000024080808040000280404040800004
:100830000300A040A00000030040E04000000200D0
:100840000000008040030000E00000000100000004
:1008500000800005081020408000046090909060A7
:10086000000340C04040E00004E0106080F000045D
:10087000E0106010E000049090F010100004F08090
:10088000E010E000046080E090600004F010204080
:100890004000046090609060000460907010600000
:1008A00001008000800000020080000080400320E2
:1008B00040804020000300E000E000000380402072
:1008C00040800004E01060004000046090B0807040
:1008D00000046090F090900004E090E090E000044C
:1008E00070808080700004E0909090E00004F080C0
:1008F000E080F00004F080E0808000047080B09020
:100900007000049090F090900003E0404040E000C0
:1009100004F010109060000490A0C0A0900004802B
:10092000808080F0000588D8A88888000490D0B026
:100930009090000460909090600004E090E08080CF
:10094000000460909090601004E090E0A09000049B
:1009500070806010E00003E0404040400004909050
:100960009090600003A0A0A0A040000588A8A8A8BF
:1009700050000490906090900003A0A04040400080
:1009800004F0106080F00002C0808080C00005800C
:10099000402010080002C0404040C00005205088A0
:1009A0000000000400000000F00002804000000091
:1009B000000300E020E0E0000380E0A0A0E00003EE
:1009C00000E08080E0000320E0A0A0E0000300E061
:1009D000E080E000024080C08080000300E0A0E0F2
:1009E00020E00380E0A0A0A00001800080808000C3
:1009F0000200C0404040800380A0C0A0A000018051
:100A000080808080000500F8A8A8A8000300E0A06E
:100A1000A0A0000300E0A0A0E0000300E0A0A0E090
:100A2000800300E0A0A0E0200300E08080800002BE
:100A300000C08040C0000340E0404040000300A0F0
:100A4000A0A0E0000300A0A0A040000500A8A8A866
:100A500050000300A040A0A0000300A0A0E020E000
:100A60000200C04080C000036040C04060000180C0
:100A7000808080800003C0406040C0000360C000F0
:100A8000000000043040E040F000000000080002D8
:100A90000100000304070000000000000000010244
:100AA00004081020408001020408102001020408FC
:100AB00010200404040404040404020202020202DA
:100AC00003030303030300000000230026002900A2
:100AD00000000000250028002B000000000024007A
:100AE00027002A0011241FBECFEFD8E0DEBFCDBF04
:100AF00011E0A0E0B1E0E2E5FAE202C005900D925B
:100B0000A231B107D9F728E0A2E1B1E001C01D92FE
:100B1000A33AB207E1F70E9463130C9427150C94D3
:100B2000000090E0FC01F595E795F595E7952EE13D
:100B3000629FE00DF11D1124E557FE4F80959095C1
:100B40008370880F23E030E0082E01C0220F0A9442
:100B5000EAF720959081292301C0440F8A95EAF78E
:100B6000422B40830895282F30E08EE1689FF001EA
:100B70001124C9019595879595958795E557FE4F61
:100B8000E80FF91F808190E0209530952370220FA7
:100B900002C0959587952A95E2F783700895FF9294
:100BA0000F931F93CF93DF931F92CDB7DEB7F82E2D
:100BB000862F042F64130AC0422F6F2D0F90DF91F0
:100BC000CF911F910F91FF900C949105461710F44F
:100BD000842F062F801750F411E0180F422F6F2D2D
:100BE00029830E949105812F2981F4CF0F90DF91F5
:100BF000CF911F910F91FF9008952F923F924F92A6
:100C00005F926F927F928F929F92AF92BF92CF929C
:100C1000DF92EF92FF920F931F93CF93DF9300D059
:100C200000D01F92CDB7DEB7182F362F893708F0C6
:100C3000C1C06D3308F0BEC0493708F0BBC02D33CA
:100C400008F0B8C084132FC062131AC0402F0F9051
:100C50000F900F900F900F90DF91CF911F910F91F8
:100C6000FF90EF90DF90CF90BF90AF909F908F90CC
:100C70007F906F905F904F903F902F900C949105D4
:100C8000261710F4322F262F321708F093C0FF24B6
:100C9000F394F30E402F632F812F2B830E94910535
:100CA0003F2D2B81F1CF62131CC0202F682F832F83
:100CB0000F900F900F900F900F90DF91CF911F9199
:100CC0000F91FF90EF90DF90CF90BF90AF909F90EB
:100CD0008F907F906F905F904F903F902F900C94EB
:100CE000CF05C82ED12C642E712C481730F4A601E4
:100CF000461957093A018FEF03C06C187D0881E04F
:100D0000E32EF12C422F50E0231738F49701241BD7
:100D1000350B3D832C833FEF06C09A012E193F0906
:100D20003D832C8331E04C815D816416750644F06F
:100D30004C812D817D826C82642E722E10E001C068
:100D400011E0660C771C5301EC81FD81AE1ABF0ADD
:100D5000EE0FFF1FFA83E983812C912C432E55243B
:100D600047FC5094282E332427FC30942C813D815D
:100D700028153905FCF0402F6E2D8C2D0E94910511
:100D8000B7FC0BC0113019F4C20CD31C02C0E40C28
:100D9000F51C29813A81A21AB30A113019F4E40C26
:100DA000F51C02C0C20CD31CA60CB71C3FEF831A63
:100DB000930ADCCF0F900F900F900F900F90DF9160
:100DC000CF911F910F91FF90EF90DF90CF90BF9048
:100DD000AF909F908F907F906F905F904F903F90DB
:100DE0002F900895883720F46C3310F40C949105FB
:100DF00008952F923F924F925F926F927F928F92BF
:100E00009F92AF92BF92CF92DF92EF92FF920F9399
:100E10001F93CF93DF9300D000D0CDB7DEB7F82E6D
:100E2000162FE42E38E7381708F4AFC06D3308F0FA
:100E3000ACC0341708F4A9C02D3308F0A6C0841341
:100E40002BC0621319C0402F0F900F900F900F907E
:100E5000DF91CF911F910F91FF90EF90DF90CF9096
:100E6000BF90AF909F908F907F906F905F904F90CA
:100E70003F902F900C94F206261710F4122F262F75
:100E8000121708F082C0402F612F8F2D2A830E94F5
:100E9000F2061F5F2A81F4CF62130EC0481710F4C8
:100EA000F42EE82EFE1408F070C0402F612F8F2D15
:100EB0000E94F206F394F6CFC82ED12C642E712C2A
:100EC000481730F4C601861997093C018FEF03C01B
:100ED0006C187D0881E0E12EF12C422F50E02117A3
:100EE00038F49701241B350B3C832B839FEF06C0FE
:100EF0009A012E193F093C832B8391E02B813C8181
:100F00006216730644F03B812C817C826B82632ED7
:100F1000722E10E001C011E0660C771C53012B818A
:100F20003C81A21AB30A220F331F812C912C492E27
:100F3000552447FC5094282E332427FC3094EB8111
:100F4000FC81E815F9050CF1402F6E2D8C2D2A83BC
:100F500039830E94F2062A813981B7FC09C0113019
:100F600019F4C20CD31C02C0E40CF51CA21AB30A7B
:100F7000113019F4E40CF51C02C0C20CD31CA60CF1
:100F8000B71C8FEF881A980ADACF0F900F900F9046
:100F90000F90DF91CF911F910F91FF90EF90DF9015
:100FA000CF90BF90AF909F908F907F906F905F9009
:100FB0004F903F902F90089581E00E94141285E099
:100FC0000E9484120E94721360E08BE00E94CA1299
:100FD00060E08CE00E94CA1260E08DE00E94CA12BC
:100FE00060E084E00E94CA1260E085E00E94CA12BC
:100FF00061E08AE00E94CA1261E08AE00C94031367
:1010000024E030E040E050E061E070E080E090E01B
:101010000E949E1360930D01613021F410928301B0
:101020008FEF09C0623011F481E00BC0633031F4FE
:101030001092830181E08093820107C0643029F41B
:101040008FEF80938301109282011092170110920A
:1010500016011092190183E080930C0182E090E068
:10106000909315018093140120910B0180E591E08C
:10107000AEE1B1E0FC013E2F381B321718F411929B
:101080001D92F9CF8CE3809350018EE180931E0175
:101090009DE39093510180931F019EE39093520131
:1010A00080932001089585E00E94391321E0892B67
:1010B00009F420E0209388018DE00E94391321E09B
:1010C000892B09F420E02093870184E00E943913E2
:1010D00021E0892B09F420E0209386018CE00E9416
:1010E000391321E0892B09F420E0209385018BE05E
:1010F0000E9439138093840180918801811104C07A
:1011000080918701882321F0109286011092850139
:1011100080918601811104C080918501882321F08E
:10112000109288011092870108950F93CF93C82FD2
:1011300080911D0160911C01685F40910901480F79
:1011400041500C2F262F0E94F90680911D016091BD
:101150001C0190910801690F615040910901480FED
:10116000262F0E94F90660911C0180911D0120919B
:101170000801260F2150685F482F0E94F9066091F0
:101180001C0180911D0190910901890F81502091CE
:101190000801260F2150685F482F0E94F906CF9161
:1011A0000F9108950F93CF93C62F8230B9F46091B9
:1011B0001C0180911D018C5E20910801260F2C508E
:1011C0006C5E0C2F482F0E94F90660911C018091E3
:1011D0001D0190910901890F845154C08330E9F4B5
:1011E00080911D0160911C016F5E40910901480FC3
:1011F0004E510C2F262F825E0E94F90680911D0110
:1012000060911C0190910801690F6A504091090199
:10121000480F4E51262F825ECBC28430C1F580919B
:101220001D0160911C016F5E40910901480F4E51F4
:101230000C2F262F825E0E94F90680911D0160917D
:101240001C0190910801690F6A5040910901480FF3
:101250004E51262F825E0E94F90660911C018091FA
:101260001D01815F20910801260F2C506C5E482FD4
:101270000E94F90660911C0180911D019091090165
:10128000890F8F5020910801260F2C5039C08530CE
:10129000C9F580911D0160911C016F5E40910901AB
:1012A000480F4E510C2F262F815F0E94F906809126
:1012B0001D0160911C0190910801690F6A504091D5
:1012C0000901480F4E50262F825E0E94F906609158
:1012D0001C0180911D01815F20910801260F2C5077
:1012E0006F5E482F0E94F90660911C0180911D01DC
:1012F00090910901890F8F5020910801260F2A50E3
:101300006C5E55C2863009F0A8C080911D016091C5
:101310001C01615F44E1480F0C2F262F865F0E945D
:10132000F90660911C0180911D018C5E29E1260F58
:10133000615F482F0E94F90680911D0160911C0198
:10134000675E48E2480F262F8C5E0E94F906809166
:101350001D0160911C0190910801690F695044E1E1
:10136000480F262F865F0E94F90660910801809140
:101370001C01680F80911D018C5E2DEE260F6850B8
:10138000482F0E94F90680911D0160911C019091E7
:101390000801690F635148E2480F262F8C5E0E94B6
:1013A000F9068091090190911D01890F60911C013E
:1013B000615F4CEE480F262F8A500E94F90660911B
:1013C0001C0180911D0190910901890F845129E12F
:1013D000260F615F482F0E94F906809109019091C4
:1013E0001D01890F60911C01675E48ED480F262F93
:1013F00083510E94F9068091090190911D01890F86
:1014000060911C0190910801690F69504CEE480FE2
:10141000262F8A500E94F9066091080180911C01D4
:10142000680F80911D0190910901890F84512DEE63
:10143000260F6850482F0E94F9068091090190916B
:101440001D01890F60911C0190910801690F635182
:1014500048ED480F262F8451ABC1873009F051C0A9
:1014600060911C0180911D01865F20910801260F6B
:101470002650625F0C2F482F0E94F90660911C01D4
:1014800080911D018C5E20910801260F2650625F1D
:10149000482F0E94F90660911C0180911D01825E17
:1014A00020910801260F2650625F482F0E94F906FE
:1014B00060911C0180911D0190910901890F8A5052
:1014C00020910801260F2650625F482F0E94F906DE
:1014D00060911C0180911D0190910901890F845137
:1014E00020910801260F2650625F482F0E94F906BE
:1014F00060911C0180911D0190910901890F8E510D
:10150000C2C0883099F580911D0160911C01605E18
:101510004EE1480F0C2F262F865F0E94F90680911E
:10152000090190911D01890F60911C01605E42EEDE
:10153000480F262F8A500E94F90680911D01609164
:101540001C016E5E40910901480F4852262F885DAC
:101550000E94F90680911D0160911C01605D40911F
:101560000901480F4852262F885D22C1893009F0B1
:1015700090C060911C0180911D0190910901890F1B
:101580008A5020910801260F2650625F0C2F482FA9
:101590000E94F90660911C0180911D019091090142
:1015A000890F845120910801260F2E506A5E482F22
:1015B0000E94F90660911C0180911D019091090122
:1015C000890F8E5120910801260F2650625F482F07
:1015D0000E94F90660911C0180911D019091090102
:1015E000890F885220910801260F2E506A5E482FDD
:1015F0000E94F90660911C0180911D0190910901E2
:10160000890F825320910801260F2650625F482FD0
:101610000E94F90660911C0180911D01865F209156
:101620000801260F2650625F482F0E94F90660913C
:101630001C0180911D018C5E20910801260F2E5007
:101640006A5E482F0E94F90660911C0180911D017D
:10165000825E20910801260F2650625F482F0E946B
:10166000F90660911C0180911D01885D209108019F
:10167000260F2E506A5E482F0E94F90660911C01C9
:1016800080911D018E5C20910801260F2650625F1B
:101690008EC08A3009F08EC060911C0180911D01BE
:1016A00090910901890F8A5020910801260F275037
:1016B000625F0C2F482F0E94F90680911D016091F6
:1016C0001C01625F40910901480F4A50262F865F36
:1016D0000E94F90680911D0160911C019091080102
:1016E000690F675040910901480F4950262F865FC6
:1016F0000E94F90660911C0180911D01865F2CE11A
:10170000260F625F482F0E94F90660911C018091AC
:101710001D01865F20910801260F27506F5D482F1D
:101720000E94F90660911C0180911D0190910901B0
:10173000890F845126E2260F6B5E482F0E94F9061E
:1017400060911C0180911D0190910901890F8451C4
:1017500020910801260F2E50655D482F0E94F90642
:1017600080911D0160911C016B5E40910901480F41
:101770004451262F8C5E0E94F90680911D016091D4
:101780001C0190910801690F6E5040910901480FAA
:101790004351262F8C5E0E94F90660911C018091B6
:1017A0001D018C5E20910801260F2E506B5E482F84
:1017B0000E94F906CF910F910895CF93DF93809106
:1017C000140190911501FC01E25EFE4FDC01A05B6B
:1017D000BE4F40918A0160818C910E949105809159
:1017E00014019091150120910C0130E02150310934
:1017F000DC01A05BBE4F50918301FC01E25EFE4F15
:10180000409182018217930739F480915001850F2E
:101810008C9380911E010BC00196EC01C05BDE4FE2
:101820002881250F2C93DC01A25EBE4F8C91840F82
:101830008083DF91CF910895CF93DF9380918901C9
:10184000813009F05CC0D0911A01C0911B016D2F4D
:101850008C2F0E94B30590910E01891306C0409110
:101860008A016D2F8C2F0E94910560911D0170E0FF
:10187000809109019B01280F311D26503109442711
:1018800037FD4095542F6A5F7F4F882777FD8095FD
:10189000982F0E949E1360931B0160911C0170E0C1
:1018A000809108019B01280F311D2E5031094427DA
:1018B00037FD4095542F625F7F4F882777FD8095D5
:1018C000982F0E949E13C62F60931A01D0911B017E
:1018D0008D2F0E94B30590911001891709F4AECFA6
:1018E00090910F01891709F4A9CF40910E016C2F37
:1018F0008D2F0E9491051092170110921601DF9111
:10190000CF9108956F927F928F92AF92CF92DF9294
:10191000EF92FF920F931F93CF93DF9320910401D7
:101920003091050180911201909113012817390718
:1019300009F4B8C0D0918A01DF3F09F0A8C000E0E7
:1019400020E043E260E080E00E94FD0526E040E008
:1019500060E080E00E94FD0526E043E260E083E273
:101960000E94FD0526E043E266E080E00E94FD055E
:10197000C0911201D0911301D12C19E17AE0672EA8
:10198000712C1C161D060CF062C0CE01B3010E9422
:101990003F1480900E01A12CC12E009729F467EE10
:1019A000E62E60E0F62E43C08130910529F455EE15
:1019B000E52E50E0F52E3BC08230910529F443EE30
:1019C000E42E40E0F42E33C08330910529F431EE4B
:1019D000E32E30E0F32E2BC08430910529F42FED57
:1019E000E22E20E0F22E23C08530910529F49DEDF2
:1019F000E92E90E0F92E1BC08630910529F48BED7D
:101A0000E82E80E0F82E13C08730910529F409ED07
:101A1000E02E00E0F02E0BC0089729F4B7EDEB2E76
:101A2000B0E0FB2E04C0A5EDEA2EA0E0FA2E01E006
:101A300021E046E06FE581EF97E00E948B0F1550A3
:101A4000CE01B3010E943F14EB01D3949ACFC6E0BC
:101A5000CD19CC2399F080900E01A12CC12EF7EE68
:101A6000EF2EF0E0FF2E01E021E046E06FE581EF90
:101A700097E00E948B0F1550C150EBCF809112015F
:101A80009091130190930501809304010BC0C0E075
:101A90002D2F43E260E08C2F0E94CF05CF5FC63030
:101AA000B9F74DCFDF91CF911F910F91FF90EF903C
:101AB000DF90CF90AF908F907F906F90089580E0EF
:101AC0000E94591210921301109212018FEF9FEF92
:101AD00090930501809304011092180110921D014A
:101AE00010921C0188E7809309018CE38093080120
:101AF00081E0809307010C9400086F927F928F928F
:101B0000AF92CF92EF92FF920F93CF93DF9380919A
:101B100007018F5F8093070180910A0185508093B0
:101B20000A0180E00E94591280910701823059F425
:101B300080900F016BE1A62E7BE2C72EE3ECEE2E28
:101B4000E0E0FE2E67C0833059F480900F013BE146
:101B5000A32E4BE2C42E5BEBE52E50E0F52E5AC0CF
:101B6000843059F480900F018BE1A82E9BE2C92E9E
:101B700023EBE22E20E0F22E4DC0853059F4809008
:101B80000E01CBE1AC2EDBE2CD2E0BEAE02E00E025
:101B9000F02E40C0863059F480900E01FBE1AF2E4C
:101BA000ABE2CA2EB3EAEB2EB0E0FB2E33C0873097
:101BB00059F480900E016BE1A62E7BE2C72EEBE973
:101BC000EE2EE0E0FE2E26C0883059F48090100101
:101BD0003BE1A32E4BE2C42E53E9E52E50E0F52E57
:101BE00019C0893059F4809010018BE1A82E9BE236
:101BF000C92E2BE8E22E20E0F22E0CC08A30F1F440
:101C000080901001CBE1AC2ED8E2CD2E02E8E02E80
:101C100000E0F02E01E021E046E06FE581EF97E083
:101C20000E948B0F80ED97E00E94771280E00E9467
:101C300059120E9400081092190128C0C0E0D0E09B
:101C4000B3E06B2E712CCE01B3010E943F148824A7
:101C50008394880EEBE1AE2EF2E0CF2EA8E6EA2EBA
:101C6000A0E0FA2E01E021E046E06FE581EF97E089
:101C70000E948B0F84E690E00E9477122196C83173
:101C8000D10509F70E945F0D10928901DF91CF9174
:101C90000F91FF90EF90CF90AF908F907F906F90CB
:101CA0000895841708F4842F681708F4862F089580
:101CB0008091140190911501FC01E05BFE4F308191
:101CC00020911B01321325C0FC01E25EFE4F908182
:101CD00080911A0198131DC080910C0141E0609120
:101CE0000B018B5F0E94510E80930C0180911201B9
:101CF000909113010A9690931301809312018091A1
:101D000019018F5F809319018A30C9F40E947D0DFB
:101D100016C08091060190E02091160130911701C4
:101D20002817390774F08091120140E06FE3855065
:101D30000E94510E90E090931301809312010C9435
:101D40001C0C08958F92AF92CF92EF92FF920F9357
:101D5000CF93DF93809118018F5F809318010E94C9
:101D6000530880918901811110C089EE90E00E9492
:101D70006B12C0918401C13009F09BC00E945F0DBD
:101D8000C09389010E941C0C94C0813009F075C079
:101D900080911601909117010196909317018093FD
:101DA000160180910D01823011F08430F1F48091A0
:101DB0008801882359F010928601109285011092B3
:101DC00083018FEF8093820181E02EC08091870193
:101DD000882361F11092860110928501109283018F
:101DE00081E08093820183E01FC08D7F8130F1F418
:101DF00090918501992351F01092880110928701EA
:101E0000109282018093830182E00EC0809186014E
:101E1000882361F01092880110928701109282014C
:101E20008FEF8093830184E080930D010E94820CE8
:101E300060911001809107010E94D20880911001E9
:101E40000E9495080E94DD0B80911401909115016C
:101E5000FC01E25EFE4FD081FC01E05BFE4FC081E1
:101E60006D2F8C2F0E94B30590918A01891769F11B
:101E700090910E01891348C028C08230D1F480901F
:101E80001001FBE1AF2EA5E2CA2EBBECEB2EB0E0B9
:101E9000FB2E01E021E046E06FE581EF97E00E9434
:101EA0008B0F80ED97E00E9477120E945F0D1092D9
:101EB00089018EE190E0DF91CF910F91FF90EF903B
:101EC000CF90AF908F900C94771240910F016D2FAF
:101ED0008C2F0E9491050E94580E809114019091C0
:101EE00015010197909315018093140197FF08C085
:101EF00080910C0190E0019790931501809314015B
:101F000080910A0190E0D7CF80E00E94591282E0D0
:101F100080938901E0CF2F923F924F925F926F9210
:101F20007F928F929F92AF92BF92CF92DF92EF9269
:101F3000FF920F931F93CF93DF93CDB7DEB72D970B
:101F40000FB6F894DEBF0FBECDBF9B838A83D42E1D
:101F5000922EB02E37010C2D862F90E09C878B8718
:101F6000442E512C9FEF491A590A93E0920F9D87F6
:101F7000B40EF3012491222309F4C4C02A3019F4C9
:101F8000AB0C0C2DBBC0203219F49D85090FB6C0D7
:101F9000215227FDB2C0332727FD3095EB85FC8504
:101FA0002E173F070CF0A9C0249DF001259DF00DD0
:101FB000349DF00D11248A819B81E80FF91FE49074
:101FC0001A2D9A2D9D0D9983CF0101961C0197E042
:101FD000900F9C8396E0900F9D8395E0900F9E83D9
:101FE00094E0900F9F8393E0900F988792E0900F7A
:101FF000998791E0900F9A879981191709F47AC00F
:10200000F101F49008370CF070C007FD07C0F7FE2F
:1020100005C0482D612F802F0E949105EE2009F404
:1020200064C0073709F461C00F3F3CF0F6FE05C0FD
:10203000482D612F8A850E949105F1E0EF1609F481
:1020400054C0063709F451C00E3F3CF0F5FE05C000
:10205000482D612F89850E94910582E0E81609F4D8
:1020600044C0053709F441C00D3F3CF0F4FE05C003
:10207000482D612F88850E94910593E0E916A9F10A
:10208000043799F10C3F3CF0F3FE05C0482D612F59
:102090008F810E949105E4E0EE1639F1033729F1B2
:1020A0000B3F3CF0F2FE05C0482D612F8E810E944F
:1020B0009105F5E0EF16C9F00237B9F00A3F3CF0A0
:1020C000F1FE05C0482D612F8D810E94910586E0AB
:1020D000E81659F0013749F0093F3CF0F0FE05C021
:1020E000482D612F8C810E9491051F5F9FEF291A57
:1020F000390A82CF0F5F0E0D01C0090DEFEF6E1A86
:102100007E0A37CF2D960FB6F894DEBF0FBECDBF37
:10211000DF91CF911F910F91FF90EF90DF90CF90C3
:10212000BF90AF909F908F907F906F905F904F90F7
:102130003F902F9008951F920F920FB60F92112487
:102140008F939F938FEF809395088AE580939308F0
:1021500080919608909197080196909397088093A4
:102160009608109294089F918F910F900FBE0F9038
:102170001F9018951F920F920FB60F9211240F9374
:102180001F932F934F935F938F939F93EF93FF939F
:1021900080919808E9E9F8E00081803031F0003062
:1021A00059F421E026B9808309C000000000000036
:1021B00000000000000002C00A950083809193088F
:1021C000882321F081508093930820C18091940846
:1021D0008C3308F01BC1009146000D5F07700E9410
:1021E000F110FF91EF913596E00F09940000000087
:1021F000000000000000000000009EE1899FF00147
:102200001124E557FE4F44E001910BB9049F0BB830
:10221000049E0BB8049E0BB801910BB9049F0BB838
:10222000049E0BB8049E0BB801910BB9049F0BB828
:10223000049E0BB8049E0BB801910BB9049F0BB818
:10224000049E0BB8049E0BB801910BB9049F0BB808
:10225000049E0BB8049E0BB801910BB9049F0BB8F8
:10226000049E0BB8049E0BB801910BB9049F0BB8E8
:10227000049E0BB8049E0BB801910BB9049F0BB8D8
:10228000049E0BB8049E0BB801910BB9049F0BB8C8
:10229000049E0BB8049E0BB801910BB9049F0BB8B8
:1022A000049E0BB8049E0BB801910BB9049F0BB8A8
:1022B000049E0BB8049E0BB801910BB9049F0BB898
:1022C000049E0BB8049E0BB801910BB9049F0BB888
:1022D000049E0BB8049E0BB801910BB9049F0BB878
:1022E000049E0BB8049E0BB801910BB9049F0BB868
:1022F000049E0BB8049E0BB801910BB9049F0BB858
:10230000049E0BB8049E0BB801910BB9049F0BB847
:10231000049E0BB8049E0BB801910BB9049F0BB837
:10232000049E0BB8049E0BB801910BB9049F0BB827
:10233000049E0BB8049E0BB801910BB9049F0BB817
:10234000049E0BB8049E0BB801910BB9049F0BB807
:10235000049E0BB8049E0BB801910BB9049F0BB8F7
:10236000049E0BB8049E0BB801910BB9049F0BB8E7
:10237000049E0BB8049E0BB801910BB9049F0BB8D7
:10238000049E0BB8049E0BB801910BB9049F0BB8C7
:10239000049E0BB8049E0BB801910BB9049F0BB8B7
:1023A000049E0BB8049E0BB801910BB9049F0BB8A7
:1023B000049E0BB8049E0BB801910BB9049F0BB897
:1023C000049E0BB8049E0BB801910BB9049F0BB887
:1023D000049E0BB8049E0BB801910BB9049F0BB877
:1023E000049E0BB8049E0BB8000000E00BB980916E
:1023F00095088F5F80939508853041F48FEF809327
:102400009508809194088F5F80939408FF91EF91D5
:102410009F918F915F914F912F911F910F910F90ED
:102420000FBE0F901F901895CF93F894882321F03A
:1024300061E08EE00E94CA1210926E0014BCC1E0EE
:10244000C5BD17BC18BC16BC61E089E00E94CA1269
:1024500082E8809380008DE18093810083E091E0A9
:1024600090938700809386001092890010928800D4
:10247000C6BBC0936F0061E083E00E94CA1283E292
:102480008093B0008AE08093B1008FE38093B30023
:1024900087E08093B400C7BBC093700061E086E022
:1024A0000E94CA1261E087E00E94CA127894CF911C
:1024B00008958370982F990F990F982B892F8295E3
:1024C000807F892BEBE8F1E098E0E339F90711F020
:1024D0008193FACF0895ABE8B1E0F8E0A339BF07E4
:1024E00029F0FC0124912D930196F7CF08950197CF
:1024F00050F025EF31E021503109C9F30000000010
:1025000000000000F8CF08958E3008F08E508770DC
:102510002091110190E4299F90011124822B809336
:102520007C0080917A00806480937A0080917A00A8
:1025300086FDFCCF809178002091790090E0922B6D
:102540000895833081F028F4813099F08230A1F031
:1025500008958730A9F08830B9F08430D1F48091A3
:1025600080008F7D03C0809180008F7780938000F2
:10257000089584B58F7702C084B58F7D84BD08959A
:102580008091B0008F7703C08091B0008F7D8093E1
:10259000B0000895CF93DF9390E0FC01E256F54F31
:1025A0002491FC01EE54F54F8491882349F190E089
:1025B000880F991FFC01E652F54FA591B491805305
:1025C000954FFC01C591D4919FB7611108C0F89453
:1025D0008C91209582238C93888182230AC062305B
:1025E00051F4F8948C91322F309583238C93888109
:1025F000822B888304C0F8948C91822B8C939FBF8C
:10260000DF91CF9108950F931F93CF93DF931F9284
:10261000CDB7DEB7282F30E0F901E657F54F8491AA
:10262000F901E256F54F1491F901EE54F54F04917A
:102630000023C9F0882321F069830E94A1126981D7
:10264000E02FF0E0EE0FFF1FE053F54FA591B4919E
:102650009FB7F8948C91611103C01095812301C03C
:10266000812B8C939FBF0F90DF91CF911F910F9182
:102670000895CF93DF93282F30E0F901E657F54F07
:102680008491F901E256F54FD491F901EE54F54FDA
:10269000C491CC2391F081110E94A112EC2FF0E0A3
:1026A000EE0FFF1FEA53F54FA591B4912C912D2306
:1026B00081E090E021F480E002C080E090E0DF91D2
:1026C000CF91089508950E9404140E9462130E94FD
:1026D000DC07C0E0D0E00E94A20E2097E1F30E9448
:1026E0000000F9CF009729F0BC0180E090E00C9445
:1026F00016150895CF93DF9300D000D0CDB7DEB785
:102700009B01AC01611571058105910569F0698333
:102710003A834B835C830E94111529813A814B8156
:102720005C810E94531403C060E070E0CB010F9005
:102730000F900F900F90DF91CF910895CF92DF927D
:10274000EF92FF926B017C01621773078407950774
:1027500064F4CA01B9016C197D098E099F090E94B0
:102760007A136C0D7D1D8E1D9F1DFF90EF90DF90E5
:10277000CF9008951F920F920FB60F9211242F93AE
:102780003F938F939F93AF93BF9380919B089091BA
:102790009C08A0919D08B0919E0830919A0823E072
:1027A000230F2D3720F40196A11DB11D05C026E889
:1027B000230F0296A11DB11D20939A0880939B08B8
:1027C00090939C08A0939D08B0939E0880919F08C9
:1027D0009091A008A091A108B091A2080196A11D16
:1027E000B11D80939F089093A008A093A108B09377
:1027F000A208BF91AF919F918F913F912F910F9020
:102800000FBE0F901F901895789484B5826084BD98
:1028100084B5816084BD85B5826085BD85B58160E4
:1028200085BDEEE6F0E0808181608083E1E8F0E044
:102830001082808182608083808181608083E0E873
:10284000F0E0808181608083E1EBF0E08081846052
:102850008083E0EBF0E0808181608083EAE7F0E054
:1028600080818460808380818260808380818160B8
:1028700080838081806880831092C100089597FBD7
:10288000072E16F4009407D077FD09D00E947D141E
:1028900007FC05D03EF4909581959F4F0895709563
:1028A00061957F4F0895052E97FB1EF400940E94BA
:1028B0006A1457FD07D00E94911407FC03D04EF410
:1028C0000C946A1450954095309521953F4F4F4F89
:1028D0005F4F089590958095709561957F4F8F4FCC
:1028E0009F4F08950E94B314A59F900DB49F900D23
:1028F000A49F800D911D11240895AA1BBB1B51E1BB
:1029000007C0AA1FBB1FA617B70710F0A61BB70B5F
:10291000881F991F5A95A9F780959095BC01CD0104
:102920000895A1E21A2EAA1BBB1BFD010DC0AA1F10
:10293000BB1FEE1FFF1FA217B307E407F50720F028
:10294000A21BB30BE40BF50B661F771F881F991FA3
:102950001A9469F760957095809590959B01AC01EC
:10296000BD01CF010895A29FB001B39FC001A39FF5
:10297000700D811D1124911DB29F700D811D1124B8
:10298000911D08958F929F92AF92BF92CF92DF9246
:10299000EF92FF92CF93DF93EC01688179818A8176
:1029A0009B81611571058105910521F464E279ED42
:1029B0008BE597E02DE133EF41E050E00E945314A6
:1029C00049015A019B01AC01A7EAB1E40E947214CB
:1029D0006B017C01ACEEB4EFA50194010E942215BD
:1029E000C60ED71EE81EF91EF7FE06C081E0C81A03
:1029F000D108E10880E8F80AC882D982EA82FB821D
:102A0000C701B6019F77DF91CF91FF90EF90DF90E4
:102A1000CF90BF90AF909F908F9008950E94C21466
:102A2000089580E091E00E94C2140895609300012F
:102A30007093010180930201909303010895B7FF01
:102A40000C9472140E947214821B930B0895F894D4
:022A5000FFCFB6
:102A520001000000FFFFC8013C783C320302030280
:022A6200010170
:00000001FF
